{
  "contractName": "PaymentEscrow",
  "abi": [
    {
      "inputs": [],
      "stateMutability": "nonpayable",
      "type": "constructor"
    },
    {
      "anonymous": false,
      "inputs": [
        {
          "indexed": false,
          "internalType": "uint256",
          "name": "orderId",
          "type": "uint256"
        },
        {
          "indexed": false,
          "internalType": "address",
          "name": "buyer",
          "type": "address"
        },
        {
          "indexed": false,
          "internalType": "uint256",
          "name": "amount",
          "type": "uint256"
        }
      ],
      "name": "OrderCreated",
      "type": "event"
    },
    {
      "anonymous": false,
      "inputs": [
        {
          "indexed": false,
          "internalType": "uint256",
          "name": "orderId",
          "type": "uint256"
        },
        {
          "indexed": false,
          "internalType": "address",
          "name": "recipient",
          "type": "address"
        },
        {
          "indexed": false,
          "internalType": "uint256",
          "name": "amount",
          "type": "uint256"
        }
      ],
      "name": "PaymentReleased",
      "type": "event"
    },
    {
      "anonymous": false,
      "inputs": [
        {
          "indexed": false,
          "internalType": "address",
          "name": "shippingContract",
          "type": "address"
        }
      ],
      "name": "ShippingContractUpdated",
      "type": "event"
    },
    {
      "inputs": [],
      "name": "orderCount",
      "outputs": [
        {
          "internalType": "uint256",
          "name": "",
          "type": "uint256"
        }
      ],
      "stateMutability": "view",
      "type": "function",
      "constant": true
    },
    {
      "inputs": [
        {
          "internalType": "uint256",
          "name": "",
          "type": "uint256"
        }
      ],
      "name": "orders",
      "outputs": [
        {
          "internalType": "uint256",
          "name": "orderId",
          "type": "uint256"
        },
        {
          "internalType": "address",
          "name": "buyer",
          "type": "address"
        },
        {
          "internalType": "uint256",
          "name": "amount",
          "type": "uint256"
        },
        {
          "internalType": "bool",
          "name": "paid",
          "type": "bool"
        },
        {
          "internalType": "bool",
          "name": "released",
          "type": "bool"
        }
      ],
      "stateMutability": "view",
      "type": "function",
      "constant": true
    },
    {
      "inputs": [],
      "name": "owner",
      "outputs": [
        {
          "internalType": "address",
          "name": "",
          "type": "address"
        }
      ],
      "stateMutability": "view",
      "type": "function",
      "constant": true
    },
    {
      "inputs": [],
      "name": "shippingContract",
      "outputs": [
        {
          "internalType": "address",
          "name": "",
          "type": "address"
        }
      ],
      "stateMutability": "view",
      "type": "function",
      "constant": true
    },
    {
      "inputs": [
        {
          "internalType": "address",
          "name": "_shippingContract",
          "type": "address"
        }
      ],
      "name": "setShippingContract",
      "outputs": [],
      "stateMutability": "nonpayable",
      "type": "function"
    },
    {
      "inputs": [
        {
          "internalType": "string",
          "name": "pickupLocation",
          "type": "string"
        },
        {
          "internalType": "string",
          "name": "dropoffLocation",
          "type": "string"
        },
        {
          "internalType": "string",
          "name": "senderName",
          "type": "string"
        },
        {
          "internalType": "string",
          "name": "senderPhone",
          "type": "string"
        },
        {
          "internalType": "string",
          "name": "receiverName",
          "type": "string"
        }
      ],
      "name": "createDeliveryOrder",
      "outputs": [],
      "stateMutability": "payable",
      "type": "function",
      "payable": true
    },
    {
      "inputs": [
        {
          "internalType": "uint256",
          "name": "orderId",
          "type": "uint256"
        }
      ],
      "name": "releasePayment",
      "outputs": [],
      "stateMutability": "nonpayable",
      "type": "function"
    },
    {
      "inputs": [
        {
          "internalType": "uint256",
          "name": "_orderId",
          "type": "uint256"
        }
      ],
      "name": "getOrder",
      "outputs": [
        {
          "internalType": "uint256",
          "name": "",
          "type": "uint256"
        },
        {
          "internalType": "address",
          "name": "",
          "type": "address"
        },
        {
          "internalType": "uint256",
          "name": "",
          "type": "uint256"
        },
        {
          "internalType": "bool",
          "name": "",
          "type": "bool"
        }
      ],
      "stateMutability": "view",
      "type": "function",
      "constant": true
    }
  ],
  "bytecode": "0x6080806040523461002c5760008055600280546001600160a01b0319163317905561088c90816100328239f35b600080fdfe608080604052600436101561001357600080fd5b600090813560e01c9081632453ffa8146107b657508063555e4bd81461078d57806388685cd9146105c55780638da5cb5b1461059c578063a85c38ef14610536578063d09ef241146104af578063d632e9d5146101755763f50f00711461007957600080fd5b34610172576020366003190112610172576004356001600160a01b038181169182900361016e5760025416330361013c5780156100f7576020817f705107bc72f9e90318648173ed609c51575a7b5583f7f39f882d8e746bd4de2a926bffffffffffffffffffffffff60a01b6003541617600355604051908152a180f35b60405162461bcd60e51b815260206004820152601960248201527f496e76616c6964207368697070696e6720636f6e7472616374000000000000006044820152606490fd5b60405162461bcd60e51b815260206004820152600a60248201526927b7363c9037bbb732b960b11b6044820152606490fd5b8280fd5b80fd5b5060a03660031901126101725760043567ffffffffffffffff81116104ab576101a29036906004016107d0565b919060243567ffffffffffffffff811161016e576101c49036906004016107d0565b919060443567ffffffffffffffff81116104a7576101e69036906004016107d0565b95909160643567ffffffffffffffff81116104a3576102099036906004016107d0565b979060843567ffffffffffffffff811161049f5761022b9036906004016107d0565b90913415610467576003546001600160a01b039b908c1615610422578a549b6000198d1461040e578b6001819e9d9c9d01808255600360405161026d81610803565b8281526020810133815260408201903482526040606084019660018852608085019681885281526001602052209251835586600184019151166bffffffffffffffffffffffff60a01b82541617905551600282015501915115159060ff61ff0084549251151560081b1692169061ffff19161717905560035416978a5495893b1561040a578b976040519d8e9c8d9b8c9a63636305ed60e11b8c5260048c01523360248c015260448b0160e0905260e48b019061032992610835565b906003198a83030160648b015261033f92610835565b9060031988830301608489015261035592610835565b906003198683030160a487015261036b92610835565b906003198483030160c485015261038192610835565b03925af180156103ff576103d3575b5080546040805191825233602083015234908201527f28eb86fd03c9bd96a8a83e4a46ab2ad257b70cea893d98ad6d482e96aa25fad09080606081015b0390a180f35b67ffffffffffffffff81116103eb5760405238610390565b634e487b7160e01b82526041600452602482fd5b6040513d84823e3d90fd5b8b80fd5b634e487b7160e01b8c52601160045260248cfd5b60405162461bcd60e51b815260206004820152601960248201527f5368697070696e6720636f6e7472616374206e6f7420736574000000000000006044820152606490fd5b60405162461bcd60e51b815260206004820152601060248201526f14185e5b595b9d081c995c5d5a5c995960821b6044820152606490fd5b8880fd5b8680fd5b8480fd5b5080fd5b503461017257602036600319011261017257604060809160043581526001602052206040516104dd81610803565b81549182825260018060a01b0360018201541680602084015260036002830154928360408601520154928560ff80861615159586606085015260081c161515910152604051938452602084015260408301526060820152f35b503461017257602036600319011261017257604060a091600435815260016020522060ff815491600180851b03600182015416906003600282015491015491604051948552602085015260408401528181161515606084015260081c1615156080820152f35b50346101725780600319360112610172576002546040516001600160a01b039091168152602090f35b5034610172576020806003193601126104ab576003546001600160a01b039190600435908316330361074f5780845260018252604084209182541561071957600383019081549060ff8216156106e45760ff8260081c166106ad57506101009061ff001916179055838080806002878154169601958654908282156106a4575bf11561069957600254915460408051928352939092166001600160a01b03166020820152918201527f21d71db5be59bb9fa133895586b7404307dd33fb93b16db09dc6f1d9d7d231b09080606081016103cd565b6040513d85823e3d90fd5b506108fc610645565b6064906040519062461bcd60e51b82526004820152601060248201526f105b1c9958591e481c995b19585cd95960821b6044820152fd5b6064906040519062461bcd60e51b82526004820152600e60248201526d13dc99195c881b9bdd081c185a5960921b6044820152fd5b6064906040519062461bcd60e51b82526004820152600f60248201526e13dc99195c881b9bdd08199bdd5b99608a1b6044820152fd5b60405162461bcd60e51b815260048101839052601660248201527513db9b1e481cda1a5c1c1a5b99c818dbdb9d1c9858dd60521b6044820152606490fd5b50346101725780600319360112610172576003546040516001600160a01b039091168152602090f35b9050346104ab57816003193601126104ab57602091548152f35b9181601f840112156107fe5782359167ffffffffffffffff83116107fe57602083818601950101116107fe57565b600080fd5b60a0810190811067ffffffffffffffff82111761081f57604052565b634e487b7160e01b600052604160045260246000fd5b908060209392818452848401376000828201840152601f01601f191601019056fea264697066735822122093f727676a35818e93da6b82e9799fc59719bafb48a6316d52893e07d766e34364736f6c63430008130033",
  "immutableReferences": {},
  "source": "// SPDX-License-Identifier: MIT\r\npragma solidity ^0.8.0;\r\n\r\ninterface IShippingTracking {\r\n    function createShipment(\r\n        uint orderId,\r\n        address sender,\r\n        string calldata pickupLocation,\r\n        string calldata dropoffLocation,\r\n        string calldata senderName,\r\n        string calldata senderPhone,\r\n        string calldata receiverName\r\n    ) external;\r\n}\r\n\r\ncontract PaymentEscrow {\n    uint public orderCount = 0;\n\n    struct Order {\n        uint orderId;\n        address buyer;\n        uint amount;\n        bool paid;\n        bool released;\n    }\n\r\n    mapping(uint => Order) public orders;\r\n\r\n    address public owner;\n    address public shippingContract;\n\n    // ---------------- EVENTS ----------------\n    event OrderCreated(uint orderId, address buyer, uint amount);\n    event ShippingContractUpdated(address shippingContract);\n    event PaymentReleased(uint orderId, address recipient, uint amount);\n\r\n    constructor() {\r\n        owner = msg.sender;\r\n    }\r\n\r\n    modifier onlyOwner() {\n        require(msg.sender == owner, \"Only owner\");\n        _;\n    }\n\n    modifier onlyShippingContract() {\n        require(msg.sender == shippingContract, \"Only shipping contract\");\n        _;\n    }\n\n    function setShippingContract(address _shippingContract) external onlyOwner {\n        require(_shippingContract != address(0), \"Invalid shipping contract\");\n        shippingContract = _shippingContract;\n        emit ShippingContractUpdated(_shippingContract);\n    }\n\r\n    // ---------------- DELIVERY REQUEST ----------------\r\n    function createDeliveryOrder(\r\n        string calldata pickupLocation,\r\n        string calldata dropoffLocation,\r\n        string calldata senderName,\r\n        string calldata senderPhone,\r\n        string calldata receiverName\r\n    ) external payable {\r\n        require(msg.value > 0, \"Payment required\");\r\n        require(shippingContract != address(0), \"Shipping contract not set\");\r\n\r\n        orderCount++;\r\n\r\n        orders[orderCount] = Order({\n            orderId: orderCount,\n            buyer: msg.sender,\n            amount: msg.value,\n            paid: true,\n            released: false\n        });\n\r\n        IShippingTracking(shippingContract).createShipment(\r\n            orderCount,\r\n            msg.sender,\r\n            pickupLocation,\r\n            dropoffLocation,\r\n            senderName,\r\n            senderPhone,\r\n            receiverName\r\n        );\r\n\r\n        emit OrderCreated(orderCount, msg.sender, msg.value);\n    }\n\n    // ---------------- RELEASE PAYMENT ----------------\n    function releasePayment(uint orderId) external onlyShippingContract {\n        Order storage o = orders[orderId];\n        require(o.orderId != 0, \"Order not found\");\n        require(o.paid, \"Order not paid\");\n        require(!o.released, \"Already released\");\n\n        o.released = true;\n        payable(owner).transfer(o.amount);\n\n        emit PaymentReleased(orderId, owner, o.amount);\n    }\n\n    // ---------------- GETTER ----------------\r\n    function getOrder(uint _orderId)\r\n        external\r\n        view\r\n        returns (\r\n            uint,\r\n            address,\r\n            uint,\r\n            bool\r\n        )\r\n    {\r\n        Order memory o = orders[_orderId];\r\n        return (\r\n            o.orderId,\r\n            o.buyer,\r\n            o.amount,\r\n            o.paid\r\n        );\r\n    }\r\n}\r\n",
  "sourcePath": "C:\\Users\\24013711\\fake_delivery\\C373-FA-Code\\contracts\\PaymentEscrow.sol",
  "compiler": {
    "name": "solc",
    "version": "0.8.19+commit.7dd6d404.Emscripten.clang"
  },
  "schemaVersion": "3.4.16",
  "updatedAt": "2026-01-29T07:57:43.631Z",
  "networkType": "ethereum",
  "devdoc": {
    "kind": "dev",
    "methods": {},
    "version": 1
  },
  "userdoc": {
    "kind": "user",
    "methods": {},
    "version": 1
  }
}