{
  "contractName": "PaymentEscrow",
  "abi": [
    {
      "inputs": [],
      "stateMutability": "nonpayable",
      "type": "constructor"
    },
    {
      "anonymous": false,
      "inputs": [
        {
          "indexed": false,
          "internalType": "uint256",
          "name": "orderId",
          "type": "uint256"
        },
        {
          "indexed": false,
          "internalType": "address",
          "name": "buyer",
          "type": "address"
        },
        {
          "indexed": false,
          "internalType": "address",
          "name": "seller",
          "type": "address"
        },
        {
          "indexed": false,
          "internalType": "uint256",
          "name": "amount",
          "type": "uint256"
        }
      ],
      "name": "OrderCreated",
      "type": "event"
    },
    {
      "anonymous": false,
      "inputs": [
        {
          "indexed": false,
          "internalType": "uint256",
          "name": "orderId",
          "type": "uint256"
        }
      ],
      "name": "OrderDelivered",
      "type": "event"
    },
    {
      "anonymous": false,
      "inputs": [
        {
          "indexed": false,
          "internalType": "uint256",
          "name": "orderId",
          "type": "uint256"
        }
      ],
      "name": "OrderShipped",
      "type": "event"
    },
    {
      "anonymous": false,
      "inputs": [
        {
          "indexed": false,
          "internalType": "address",
          "name": "shippingContract",
          "type": "address"
        }
      ],
      "name": "ShippingContractUpdated",
      "type": "event"
    },
    {
      "inputs": [],
      "name": "orderCount",
      "outputs": [
        {
          "internalType": "uint256",
          "name": "",
          "type": "uint256"
        }
      ],
      "stateMutability": "view",
      "type": "function"
    },
    {
      "inputs": [
        {
          "internalType": "uint256",
          "name": "",
          "type": "uint256"
        }
      ],
      "name": "orders",
      "outputs": [
        {
          "internalType": "uint256",
          "name": "orderId",
          "type": "uint256"
        },
        {
          "internalType": "address",
          "name": "buyer",
          "type": "address"
        },
        {
          "internalType": "address",
          "name": "seller",
          "type": "address"
        },
        {
          "internalType": "uint256",
          "name": "amount",
          "type": "uint256"
        },
        {
          "internalType": "bool",
          "name": "shipped",
          "type": "bool"
        },
        {
          "internalType": "bool",
          "name": "delivered",
          "type": "bool"
        }
      ],
      "stateMutability": "view",
      "type": "function"
    },
    {
      "inputs": [],
      "name": "owner",
      "outputs": [
        {
          "internalType": "address",
          "name": "",
          "type": "address"
        }
      ],
      "stateMutability": "view",
      "type": "function"
    },
    {
      "inputs": [],
      "name": "shippingContract",
      "outputs": [
        {
          "internalType": "address",
          "name": "",
          "type": "address"
        }
      ],
      "stateMutability": "view",
      "type": "function"
    },
    {
      "inputs": [
        {
          "internalType": "address",
          "name": "_shippingContract",
          "type": "address"
        }
      ],
      "name": "setShippingContract",
      "outputs": [],
      "stateMutability": "nonpayable",
      "type": "function"
    },
    {
      "inputs": [
        {
          "internalType": "address",
          "name": "_seller",
          "type": "address"
        }
      ],
      "name": "createOrder",
      "outputs": [],
      "stateMutability": "payable",
      "type": "function"
    },
    {
      "inputs": [
        {
          "internalType": "uint256",
          "name": "_orderId",
          "type": "uint256"
        },
        {
          "internalType": "address",
          "name": "caller",
          "type": "address"
        }
      ],
      "name": "markShippedFromShipping",
      "outputs": [],
      "stateMutability": "nonpayable",
      "type": "function"
    },
    {
      "inputs": [
        {
          "internalType": "uint256",
          "name": "_orderId",
          "type": "uint256"
        },
        {
          "internalType": "address",
          "name": "caller",
          "type": "address"
        }
      ],
      "name": "confirmDeliveryFromShipping",
      "outputs": [],
      "stateMutability": "nonpayable",
      "type": "function"
    },
    {
      "inputs": [
        {
          "internalType": "uint256",
          "name": "_orderId",
          "type": "uint256"
        }
      ],
      "name": "getOrder",
      "outputs": [
        {
          "internalType": "uint256",
          "name": "",
          "type": "uint256"
        },
        {
          "internalType": "address",
          "name": "",
          "type": "address"
        },
        {
          "internalType": "address",
          "name": "",
          "type": "address"
        },
        {
          "internalType": "uint256",
          "name": "",
          "type": "uint256"
        },
        {
          "internalType": "bool",
          "name": "",
          "type": "bool"
        },
        {
          "internalType": "bool",
          "name": "",
          "type": "bool"
        }
      ],
      "stateMutability": "view",
      "type": "function"
    }
  ],
  "bytecode": "0x60806040526000805534801561001457600080fd5b5033600260006101000a81548173ffffffffffffffffffffffffffffffffffffffff021916908373ffffffffffffffffffffffffffffffffffffffff16021790555061132e806100656000396000f3fe6080604052600436106100865760003560e01c80638da5cb5b116100595780638da5cb5b14610133578063a85c38ef1461015e578063d09ef241146101a0578063ea3774e3146101e2578063f50f0071146101fe57610086565b80630a7780801461008b5780632453ffa8146100b4578063555e4bd8146100df5780638b74998d1461010a575b600080fd5b34801561009757600080fd5b506100b260048036038101906100ad9190610cf5565b610227565b005b3480156100c057600080fd5b506100c96104cb565b6040516100d69190610d44565b60405180910390f35b3480156100eb57600080fd5b506100f46104d1565b6040516101019190610d6e565b60405180910390f35b34801561011657600080fd5b50610131600480360381019061012c9190610cf5565b6104f7565b005b34801561013f57600080fd5b506101486106db565b6040516101559190610d6e565b60405180910390f35b34801561016a57600080fd5b5061018560048036038101906101809190610d89565b610701565b60405161019796959493929190610dd1565b60405180910390f35b3480156101ac57600080fd5b506101c760048036038101906101c29190610d89565b610797565b6040516101d996959493929190610dd1565b60405180910390f35b6101fc60048036038101906101f79190610e32565b6108ec565b005b34801561020a57600080fd5b5061022560048036038101906102209190610e32565b610ae2565b005b600360009054906101000a900473ffffffffffffffffffffffffffffffffffffffff1673ffffffffffffffffffffffffffffffffffffffff163373ffffffffffffffffffffffffffffffffffffffff16146102b7576040517f08c379a00000000000000000000000000000000000000000000000000000000081526004016102ae90610ebc565b60405180910390fd5b60006001600084815260200190815260200160002090508060010160009054906101000a900473ffffffffffffffffffffffffffffffffffffffff1673ffffffffffffffffffffffffffffffffffffffff168273ffffffffffffffffffffffffffffffffffffffff1614610360576040517f08c379a000000000000000000000000000000000000000000000000000000000815260040161035790610f28565b60405180910390fd5b8060040160009054906101000a900460ff166103b1576040517f08c379a00000000000000000000000000000000000000000000000000000000081526004016103a890610f94565b60405180910390fd5b8060040160019054906101000a900460ff1615610403576040517f08c379a00000000000000000000000000000000000000000000000000000000081526004016103fa90611000565b60405180910390fd5b60018160040160016101000a81548160ff0219169083151502179055508060020160009054906101000a900473ffffffffffffffffffffffffffffffffffffffff1673ffffffffffffffffffffffffffffffffffffffff166108fc82600301549081150290604051600060405180830381858888f1935050505015801561048e573d6000803e3d6000fd5b507fe21fe02c1589242b30be2057f54fd54b7ddc463695d19ffdb54f9ebb0584f24a836040516104be9190610d44565b60405180910390a1505050565b60005481565b600360009054906101000a900473ffffffffffffffffffffffffffffffffffffffff1681565b600360009054906101000a900473ffffffffffffffffffffffffffffffffffffffff1673ffffffffffffffffffffffffffffffffffffffff163373ffffffffffffffffffffffffffffffffffffffff1614610587576040517f08c379a000000000000000000000000000000000000000000000000000000000815260040161057e90610ebc565b60405180910390fd5b60006001600084815260200190815260200160002090508060020160009054906101000a900473ffffffffffffffffffffffffffffffffffffffff1673ffffffffffffffffffffffffffffffffffffffff168273ffffffffffffffffffffffffffffffffffffffff1614610630576040517f08c379a00000000000000000000000000000000000000000000000000000000081526004016106279061106c565b60405180910390fd5b8060040160009054906101000a900460ff1615610682576040517f08c379a0000000000000000000000000000000000000000000000000000000008152600401610679906110d8565b60405180910390fd5b60018160040160006101000a81548160ff0219169083151502179055507fe3ce5f36666aec295b2ed1a858caf4782066e5e8c1a5a5da7ba6551b14fcfdcb836040516106ce9190610d44565b60405180910390a1505050565b600260009054906101000a900473ffffffffffffffffffffffffffffffffffffffff1681565b60016020528060005260406000206000915090508060000154908060010160009054906101000a900473ffffffffffffffffffffffffffffffffffffffff16908060020160009054906101000a900473ffffffffffffffffffffffffffffffffffffffff16908060030154908060040160009054906101000a900460ff16908060040160019054906101000a900460ff16905086565b6000806000806000806000600160008981526020019081526020016000206040518060c0016040529081600082015481526020016001820160009054906101000a900473ffffffffffffffffffffffffffffffffffffffff1673ffffffffffffffffffffffffffffffffffffffff1673ffffffffffffffffffffffffffffffffffffffff1681526020016002820160009054906101000a900473ffffffffffffffffffffffffffffffffffffffff1673ffffffffffffffffffffffffffffffffffffffff1673ffffffffffffffffffffffffffffffffffffffff168152602001600382015481526020016004820160009054906101000a900460ff161515151581526020016004820160019054906101000a900460ff1615151515815250509050806000015181602001518260400151836060015184608001518560a001519650965096509650965096505091939550919395565b6000341161092f576040517f08c379a000000000000000000000000000000000000000000000000000000000815260040161092690611144565b60405180910390fd5b60008081548092919061094190611193565b91905055506040518060c0016040528060005481526020013373ffffffffffffffffffffffffffffffffffffffff1681526020018273ffffffffffffffffffffffffffffffffffffffff1681526020013481526020016000151581526020016000151581525060016000805481526020019081526020016000206000820151816000015560208201518160010160006101000a81548173ffffffffffffffffffffffffffffffffffffffff021916908373ffffffffffffffffffffffffffffffffffffffff16021790555060408201518160020160006101000a81548173ffffffffffffffffffffffffffffffffffffffff021916908373ffffffffffffffffffffffffffffffffffffffff1602179055506060820151816003015560808201518160040160006101000a81548160ff02191690831515021790555060a08201518160040160016101000a81548160ff0219169083151502179055509050507ff9e17940e547201709f9aaacdec8ab3566601c60d8f5affb54f74b79b0b50b13600054338334604051610ad794939291906111db565b60405180910390a150565b600260009054906101000a900473ffffffffffffffffffffffffffffffffffffffff1673ffffffffffffffffffffffffffffffffffffffff163373ffffffffffffffffffffffffffffffffffffffff1614610b72576040517f08c379a0000000000000000000000000000000000000000000000000000000008152600401610b699061126c565b60405180910390fd5b600073ffffffffffffffffffffffffffffffffffffffff168173ffffffffffffffffffffffffffffffffffffffff1603610be1576040517f08c379a0000000000000000000000000000000000000000000000000000000008152600401610bd8906112d8565b60405180910390fd5b80600360006101000a81548173ffffffffffffffffffffffffffffffffffffffff021916908373ffffffffffffffffffffffffffffffffffffffff1602179055507f705107bc72f9e90318648173ed609c51575a7b5583f7f39f882d8e746bd4de2a81604051610c519190610d6e565b60405180910390a150565b600080fd5b6000819050919050565b610c7481610c61565b8114610c7f57600080fd5b50565b600081359050610c9181610c6b565b92915050565b600073ffffffffffffffffffffffffffffffffffffffff82169050919050565b6000610cc282610c97565b9050919050565b610cd281610cb7565b8114610cdd57600080fd5b50565b600081359050610cef81610cc9565b92915050565b60008060408385031215610d0c57610d0b610c5c565b5b6000610d1a85828601610c82565b9250506020610d2b85828601610ce0565b9150509250929050565b610d3e81610c61565b82525050565b6000602082019050610d596000830184610d35565b92915050565b610d6881610cb7565b82525050565b6000602082019050610d836000830184610d5f565b92915050565b600060208284031215610d9f57610d9e610c5c565b5b6000610dad84828501610c82565b91505092915050565b60008115159050919050565b610dcb81610db6565b82525050565b600060c082019050610de66000830189610d35565b610df36020830188610d5f565b610e006040830187610d5f565b610e0d6060830186610d35565b610e1a6080830185610dc2565b610e2760a0830184610dc2565b979650505050505050565b600060208284031215610e4857610e47610c5c565b5b6000610e5684828501610ce0565b91505092915050565b600082825260208201905092915050565b7f4f6e6c79207368697070696e6720636f6e747261637400000000000000000000600082015250565b6000610ea6601683610e5f565b9150610eb182610e70565b602082019050919050565b60006020820190508181036000830152610ed581610e99565b9050919050565b7f4f6e6c792062757965722063616e20636f6e6669726d2064656c697665727900600082015250565b6000610f12601f83610e5f565b9150610f1d82610edc565b602082019050919050565b60006020820190508181036000830152610f4181610f05565b9050919050565b7f4f72646572206e6f742073686970706564000000000000000000000000000000600082015250565b6000610f7e601183610e5f565b9150610f8982610f48565b602082019050919050565b60006020820190508181036000830152610fad81610f71565b9050919050565b7f416c72656164792064656c697665726564000000000000000000000000000000600082015250565b6000610fea601183610e5f565b9150610ff582610fb4565b602082019050919050565b6000602082019050818103600083015261101981610fdd565b9050919050565b7f4f6e6c792073656c6c65722063616e206d61726b207368697070656400000000600082015250565b6000611056601c83610e5f565b915061106182611020565b602082019050919050565b6000602082019050818103600083015261108581611049565b9050919050565b7f416c726561647920736869707065640000000000000000000000000000000000600082015250565b60006110c2600f83610e5f565b91506110cd8261108c565b602082019050919050565b600060208201905081810360008301526110f1816110b5565b9050919050565b7f5061796d656e7420726571756972656400000000000000000000000000000000600082015250565b600061112e601083610e5f565b9150611139826110f8565b602082019050919050565b6000602082019050818103600083015261115d81611121565b9050919050565b7f4e487b7100000000000000000000000000000000000000000000000000000000600052601160045260246000fd5b600061119e82610c61565b91507fffffffffffffffffffffffffffffffffffffffffffffffffffffffffffffffff82036111d0576111cf611164565b5b600182019050919050565b60006080820190506111f06000830187610d35565b6111fd6020830186610d5f565b61120a6040830185610d5f565b6112176060830184610d35565b95945050505050565b7f4f6e6c79206f776e657200000000000000000000000000000000000000000000600082015250565b6000611256600a83610e5f565b915061126182611220565b602082019050919050565b6000602082019050818103600083015261128581611249565b9050919050565b7f496e76616c6964207368697070696e6720636f6e747261637400000000000000600082015250565b60006112c2601983610e5f565b91506112cd8261128c565b602082019050919050565b600060208201905081810360008301526112f1816112b5565b905091905056fea2646970667358221220d4212b1d86e70061e2b9dabcdb79d81c4b770f17726b8b739d9e2cc9958067e864736f6c63430008130033",
  "immutableReferences": {},
  "source": "// SPDX-License-Identifier: MIT\npragma solidity ^0.8.0;\n\ncontract PaymentEscrow {\n    uint public orderCount = 0;\n\n    struct Order {\n        uint orderId;\n        address buyer;\n        address seller;\n        uint amount;        // Escrowed payment\n        bool shipped;       // Topic 2\n        bool delivered;     // Topic 2\n    }\n\n    mapping(uint => Order) public orders;\n\n    address public owner;\n    address public shippingContract;\n\n    // ---------------- EVENTS ----------------\n    event OrderCreated(uint orderId, address buyer, address seller, uint amount);\n    event OrderShipped(uint orderId);\n    event OrderDelivered(uint orderId);\n    event ShippingContractUpdated(address shippingContract);\n\n    constructor() {\n        owner = msg.sender;\n    }\n\n    modifier onlyOwner() {\n        require(msg.sender == owner, \"Only owner\");\n        _;\n    }\n\n    modifier onlyShipping() {\n        require(msg.sender == shippingContract, \"Only shipping contract\");\n        _;\n    }\n\n    function setShippingContract(address _shippingContract) external onlyOwner {\n        require(_shippingContract != address(0), \"Invalid shipping contract\");\n        shippingContract = _shippingContract;\n        emit ShippingContractUpdated(_shippingContract);\n    }\n\n    // ---------------- TOPIC 1: PAYMENT AUTOMATION ----------------\n    function createOrder(address _seller) public payable {\n        require(msg.value > 0, \"Payment required\");\n\n        orderCount++;\n\n        orders[orderCount] = Order(\n            orderCount,\n            msg.sender,\n            _seller,\n            msg.value,\n            false,\n            false\n        );\n\n        emit OrderCreated(orderCount, msg.sender, _seller, msg.value);\n    }\n\n    // ---------------- TOPIC 2: SHIPPING TRACKING ----------------\n    function markShippedFromShipping(uint _orderId, address caller)\n        external\n        onlyShipping\n    {\n        Order storage order = orders[_orderId];\n\n        require(caller == order.seller, \"Only seller can mark shipped\");\n        require(!order.shipped, \"Already shipped\");\n\n        order.shipped = true;\n        emit OrderShipped(_orderId);\n    }\n\n    function confirmDeliveryFromShipping(uint _orderId, address caller)\n        external\n        onlyShipping\n    {\n        Order storage order = orders[_orderId];\n\n        require(caller == order.buyer, \"Only buyer can confirm delivery\");\n        require(order.shipped, \"Order not shipped\");\n        require(!order.delivered, \"Already delivered\");\n\n        order.delivered = true;\n\n        // Auto-release escrow payment\n        payable(order.seller).transfer(order.amount);\n\n        emit OrderDelivered(_orderId);\n    }\n\n    // ---------------- GETTER ----------------\n    function getOrder(uint _orderId)\n        public\n        view\n        returns (\n            uint,\n            address,\n            address,\n            uint,\n            bool,\n            bool\n        )\n    {\n        Order memory o = orders[_orderId];\n        return (\n            o.orderId,\n            o.buyer,\n            o.seller,\n            o.amount,\n            o.shipped,\n            o.delivered\n        );\n    }\n}\n",
  "sourcePath": "C:\\Users\\24016580\\Downloads\\C373 FA Code\\contracts\\PaymentEscrow.sol",
  "compiler": {
    "name": "solc",
    "version": "0.8.19+commit.7dd6d404.Emscripten.clang"
  },
  "schemaVersion": "3.4.16",
  "updatedAt": "2026-01-22T06:47:40.600Z",
  "devdoc": {
    "kind": "dev",
    "methods": {},
    "version": 1
  },
  "userdoc": {
    "kind": "user",
    "methods": {},
    "version": 1
  }
}