{
  "contractName": "ShippingTracking",
  "abi": [
    {
      "inputs": [
        {
          "internalType": "address",
          "name": "escrowAddress",
          "type": "address"
        }
      ],
      "stateMutability": "nonpayable",
      "type": "constructor"
    },
    {
      "anonymous": false,
      "inputs": [
        {
          "indexed": false,
          "internalType": "address",
          "name": "admin",
          "type": "address"
        },
        {
          "indexed": false,
          "internalType": "bool",
          "name": "enabled",
          "type": "bool"
        }
      ],
      "name": "AdminUpdated",
      "type": "event"
    },
    {
      "anonymous": false,
      "inputs": [
        {
          "indexed": false,
          "internalType": "uint256",
          "name": "orderId",
          "type": "uint256"
        },
        {
          "indexed": false,
          "internalType": "address",
          "name": "sender",
          "type": "address"
        }
      ],
      "name": "ShipmentCreated",
      "type": "event"
    },
    {
      "anonymous": false,
      "inputs": [
        {
          "indexed": false,
          "internalType": "uint256",
          "name": "orderId",
          "type": "uint256"
        },
        {
          "indexed": false,
          "internalType": "enum ShippingTracking.DeliveryStatus",
          "name": "status",
          "type": "uint8"
        }
      ],
      "name": "StatusUpdated",
      "type": "event"
    },
    {
      "inputs": [
        {
          "internalType": "address",
          "name": "",
          "type": "address"
        }
      ],
      "name": "admins",
      "outputs": [
        {
          "internalType": "bool",
          "name": "",
          "type": "bool"
        }
      ],
      "stateMutability": "view",
      "type": "function",
      "constant": true
    },
    {
      "inputs": [],
      "name": "escrow",
      "outputs": [
        {
          "internalType": "address",
          "name": "",
          "type": "address"
        }
      ],
      "stateMutability": "view",
      "type": "function",
      "constant": true
    },
    {
      "inputs": [],
      "name": "owner",
      "outputs": [
        {
          "internalType": "address",
          "name": "",
          "type": "address"
        }
      ],
      "stateMutability": "view",
      "type": "function",
      "constant": true
    },
    {
      "inputs": [
        {
          "internalType": "uint256",
          "name": "",
          "type": "uint256"
        }
      ],
      "name": "shipments",
      "outputs": [
        {
          "internalType": "uint256",
          "name": "orderId",
          "type": "uint256"
        },
        {
          "internalType": "address",
          "name": "sender",
          "type": "address"
        },
        {
          "internalType": "string",
          "name": "pickupLocation",
          "type": "string"
        },
        {
          "internalType": "string",
          "name": "dropoffLocation",
          "type": "string"
        },
        {
          "internalType": "string",
          "name": "senderName",
          "type": "string"
        },
        {
          "internalType": "string",
          "name": "senderPhone",
          "type": "string"
        },
        {
          "internalType": "string",
          "name": "receiverName",
          "type": "string"
        },
        {
          "internalType": "enum ShippingTracking.DeliveryStatus",
          "name": "status",
          "type": "uint8"
        }
      ],
      "stateMutability": "view",
      "type": "function",
      "constant": true
    },
    {
      "inputs": [
        {
          "internalType": "address",
          "name": "admin",
          "type": "address"
        },
        {
          "internalType": "bool",
          "name": "enabled",
          "type": "bool"
        }
      ],
      "name": "setAdmin",
      "outputs": [],
      "stateMutability": "nonpayable",
      "type": "function"
    },
    {
      "inputs": [
        {
          "internalType": "uint256",
          "name": "orderId",
          "type": "uint256"
        },
        {
          "internalType": "address",
          "name": "sender",
          "type": "address"
        },
        {
          "internalType": "string",
          "name": "pickupLocation",
          "type": "string"
        },
        {
          "internalType": "string",
          "name": "dropoffLocation",
          "type": "string"
        },
        {
          "internalType": "string",
          "name": "senderName",
          "type": "string"
        },
        {
          "internalType": "string",
          "name": "senderPhone",
          "type": "string"
        },
        {
          "internalType": "string",
          "name": "receiverName",
          "type": "string"
        }
      ],
      "name": "createShipment",
      "outputs": [],
      "stateMutability": "nonpayable",
      "type": "function"
    },
    {
      "inputs": [
        {
          "internalType": "uint256",
          "name": "orderId",
          "type": "uint256"
        }
      ],
      "name": "markCollected",
      "outputs": [],
      "stateMutability": "nonpayable",
      "type": "function"
    },
    {
      "inputs": [
        {
          "internalType": "uint256",
          "name": "orderId",
          "type": "uint256"
        }
      ],
      "name": "markDelivered",
      "outputs": [],
      "stateMutability": "nonpayable",
      "type": "function"
    },
    {
      "inputs": [
        {
          "internalType": "uint256",
          "name": "orderId",
          "type": "uint256"
        }
      ],
      "name": "getShipment",
      "outputs": [
        {
          "internalType": "uint256",
          "name": "",
          "type": "uint256"
        },
        {
          "internalType": "address",
          "name": "",
          "type": "address"
        },
        {
          "internalType": "string",
          "name": "",
          "type": "string"
        },
        {
          "internalType": "string",
          "name": "",
          "type": "string"
        },
        {
          "internalType": "string",
          "name": "",
          "type": "string"
        },
        {
          "internalType": "string",
          "name": "",
          "type": "string"
        },
        {
          "internalType": "string",
          "name": "",
          "type": "string"
        },
        {
          "internalType": "enum ShippingTracking.DeliveryStatus",
          "name": "",
          "type": "uint8"
        }
      ],
      "stateMutability": "view",
      "type": "function",
      "constant": true
    }
  ],
  "bytecode": "0x6080346100de57601f61123138819003918201601f19168301916001600160401b038311848410176100e3578084926020946040528339810103126100de57516001600160a01b038116908190036100de5780156100995760018060a01b03193381600154161760015560025416176002553360005260036020526040600020600160ff1982541617905560405161113790816100fa8239f35b60405162461bcd60e51b815260206004820152601660248201527f496e76616c696420657363726f772061646472657373000000000000000000006044820152606490fd5b600080fd5b634e487b7160e01b600052604160045260246000fdfe608080604052600436101561001357600080fd5b60003560e01c908163092b374014610d0e575080632ac08a9314610c83578063429b62e514610c445780634b0bddd214610b4d57806375ca638614610a5e5780638da5cb5b14610a35578063c6c60bda146101bb578063e2fdcc17146101925763eb826a5f1461008257600080fd5b3461018d57602036600319011261018d5760043560018060a01b036001541633148015610174575b6100b390611087565b806000526000602052600760406000206100cf815415156110c0565b019081549060ff8216600381101561015e57600214610125577f2da7b23ca63c1eb969eee5fae4acb98186abecf5358b0354a82a5183ebca6b2a92600260409360ff1916179055815190815260026020820152a1005b60405162461bcd60e51b8152602060048201526011602482015270105b1c9958591e4819195b1a5d995c9959607a1b6044820152606490fd5b634e487b7160e01b600052602160045260246000fd5b503360009081526003602052604090205460ff166100aa565b600080fd5b3461018d57600036600319011261018d576002546040516001600160a01b039091168152602090f35b3461018d5760e036600319011261018d5760248035906001600160a01b038216820361018d576044356001600160401b03811161018d57610200903690600401611014565b91906064356001600160401b03811161018d57610221903690600401611014565b906084356001600160401b03811161018d57610241903690600401611014565b9060a4356001600160401b03811161018d57610261903690600401611014565b92909360c4356001600160401b03811161018d57610283903690600401611014565b60025491989097916001600160a01b031633036109fa5760043560005260006020526040600020546109c4576040519a6102bc8c610f05565b6004358c526001600160a01b038d1660208d01526102dc91369190611041565b60408b015236906102ec92611041565b606089015236906102fc92611041565b6080870152369061030c92611041565b60a0850152369061031c92611041565b60c083015260e0820160009052600435600052600060205260406000208251815560018101600160a01b600190036020850151166bffffffffffffffffffffffff60a01b82541617905560408301518051906001600160401b03821161067457819061038b6002850154610ecb565b601f8111610971575b50602090601f83116001146108ff576000926108f4575b50508160011b916000199060031b1c19161760028201555b60608301518051906001600160401b0382116106745781906103e86003850154610ecb565b601f81116108a1575b50602090601f831160011461082f57600092610824575b50508160011b916000199060031b1c19161760038201555b60808301518051906001600160401b0382116106745781906104456004850154610ecb565b601f81116107d1575b50602090601f831160011461075f57600092610754575b50508160011b916000199060031b1c19161760048201555b60a08301518051906001600160401b0382116106745781906104a26005850154610ecb565b601f8111610701575b50602090601f831160011461069457600092610689575b50508160011b916000199060031b1c19161760058201555b60c08301518051906001600160401b038211610674576104fd6006840154610ecb565b601f8111610629575b50602090601f83116001146105b657918060e094926007946000926105ab575b50508160011b916000199060031b1c19161760068201555b0192015190600382101561059757825460ff191660ff83161783556040805160043581526001600160a01b03861660208201527fe0f5cc97a7413c8504a43a017dde74af4822f66c59d6014c80548654138bc7369190a1005b634e487b7160e01b60009081526021600452fd5b015190508880610526565b90601f198316916006850160005260206000209260005b818110610611575092600192859260079660e09896106105f8575b505050811b01600682015561053e565b015160001960f88460031b161c191690558880806105e8565b929360206001819287860151815501950193016105cd565b600684016000526020600020601f840160051c8101916020851061066a575b601f0160051c01905b81811061065e5750610506565b60008155600101610651565b9091508190610648565b83634e487b7160e01b60005260416004526000fd5b0151905086806104c2565b600585016000908152602081209350601f198516905b8181106106e957509084600195949392106106d0575b505050811b0160058201556104da565b015160001960f88460031b161c191690558680806106c0565b929360206001819287860151815501950193016106aa565b909150600584016000526020600020601f840160051c81016020851061074d575b90849392915b601f830160051c8201811061073e5750506104ab565b60008155859450600101610728565b5080610722565b015190508680610465565b9250600484016000526020600020906000935b601f19841685106107b6576001945083601f1981161061079d575b505050811b01600482015561047d565b015160001960f88460031b161c1916905586808061078d565b81810151835560209485019460019093019290910190610772565b909150600484016000526020600020601f840160051c81016020851061081d575b90849392915b601f830160051c8201811061080e57505061044e565b600081558594506001016107f8565b50806107f2565b015190508680610408565b9250600384016000526020600020906000935b601f1984168510610886576001945083601f1981161061086d575b505050811b016003820155610420565b015160001960f88460031b161c1916905586808061085d565b81810151835560209485019460019093019290910190610842565b909150600384016000526020600020601f840160051c8101602085106108ed575b90849392915b601f830160051c820181106108de5750506103f1565b600081558594506001016108c8565b50806108c2565b0151905086806103ab565b9250600284016000526020600020906000935b601f1984168510610956576001945083601f1981161061093d575b505050811b0160028201556103c3565b015160001960f88460031b161c1916905586808061092d565b81810151835560209485019460019093019290910190610912565b909150600284016000526020600020601f840160051c8101602085106109bd575b90849392915b601f830160051c820181106109ae575050610394565b60008155859450600101610998565b5080610992565b60405162461bcd60e51b815260206004820152600f818c01526e536869706d656e742065786973747360881b6044820152606490fd5b60405162461bcd60e51b8152602060048201526014818c01527313db9b1e48195cd8dc9bddc818dbdb9d1c9858dd60621b6044820152606490fd5b3461018d57600036600319011261018d576001546040516001600160a01b039091168152602090f35b3461018d57602036600319011261018d5760043560018060a01b036001541633148015610b34575b610a8f90611087565b80600052600060205260076040600020610aab815415156110c0565b019081549060ff8216600381101561015e57610afe577f2da7b23ca63c1eb969eee5fae4acb98186abecf5358b0354a82a5183ebca6b2a92600160409360ff1916179055815190815260016020820152a1005b60405162461bcd60e51b815260206004820152600e60248201526d496e76616c69642073746174757360901b6044820152606490fd5b503360009081526003602052604090205460ff16610a86565b3461018d57604036600319011261018d57610b66610ffe565b6024359081151580920361018d576001546001600160a01b03919082163303610c125716908115610bdd57816040917f235bc17e7930760029e9f4d860a2a8089976de5b381cf8380fc11c1d88a111339360005260036020528260002060ff1981541660ff831617905582519182526020820152a1005b60405162461bcd60e51b815260206004820152600d60248201526c24b73b30b634b21030b236b4b760991b6044820152606490fd5b60405162461bcd60e51b815260206004820152600a60248201526927b7363c9037bbb732b960b11b6044820152606490fd5b3461018d57602036600319011261018d576001600160a01b03610c65610ffe565b166000526003602052602060ff604060002054166040519015158152f35b3461018d57602036600319011261018d57600435600052600060205260406000208054610d0a60018060a01b0360018401541692610cc360028201610f58565b90610cd060038201610f58565b610cdc60048301610f58565b610ce860058401610f58565b9160ff6007610cf960068701610f58565b950154169460405198899889610e47565b0390f35b3461018d57602036600319011261018d5760043560005260006020526040600020610d3882610f05565b8054825260018101546001600160a01b03908116602084019081529190610d6160028301610f58565b9360408101948552610d7560038401610f58565b9260608201938452610d8960048201610f58565b9260808301938452610d9d60058301610f58565b9060a0840191825260ff6007610db560068601610f58565b9460c087019586520154169360e0810194600381101561015e578552610ddd815115156110c0565b5196511696519451935190519151925193600385101561015e57610d0a9560405198899889610e47565b919082519283825260005b848110610e33575050826000602080949584010152601f8019910116010190565b602081830181015184830182015201610e12565b9897969490610ead94610e83610ebb98958c6020610e9f97610e9196835260018060a01b031691015260408d61010091829101528d0190610e07565b908b820360608d0152610e07565b9089820360808b0152610e07565b9087820360a0890152610e07565b9085820360c0870152610e07565b92600382101561015e5760e00152565b90600182811c92168015610efb575b6020831014610ee557565b634e487b7160e01b600052602260045260246000fd5b91607f1691610eda565b61010081019081106001600160401b03821117610f2157604052565b634e487b7160e01b600052604160045260246000fd5b90601f801991011681019081106001600160401b03821117610f2157604052565b9060405191826000825492610f6c84610ecb565b908184526001948581169081600014610fdb5750600114610f98575b5050610f9692500383610f37565b565b9093915060005260209081600020936000915b818310610fc3575050610f9693508201013880610f88565b85548884018501529485019487945091830191610fab565b915050610f9694506020925060ff191682840152151560051b8201013880610f88565b600435906001600160a01b038216820361018d57565b9181601f8401121561018d578235916001600160401b03831161018d576020838186019501011161018d57565b9291926001600160401b038211610f21576040519161106a601f8201601f191660200184610f37565b82948184528183011161018d578281602093846000960137010152565b1561108e57565b60405162461bcd60e51b815260206004820152600a60248201526927b7363c9030b236b4b760b11b6044820152606490fd5b156110c757565b60405162461bcd60e51b815260206004820152601260248201527114da1a5c1b595b9d081b9bdd08199bdd5b9960721b6044820152606490fdfea2646970667358221220d16f53b6add5d96f1fdfbe6a9c6ef33a35ea10998604b902631e99b0dd3475ba64736f6c63430008130033",
  "immutableReferences": {},
  "source": "// SPDX-License-Identifier: MIT\r\npragma solidity ^0.8.0;\r\n\r\ncontract ShippingTracking {\r\n    enum DeliveryStatus {\r\n        NotCollected,\r\n        InTransit,\r\n        Delivered\r\n    }\r\n\r\n    struct Shipment {\r\n        uint orderId;\r\n        address sender;\r\n        string pickupLocation;\r\n        string dropoffLocation;\r\n        string senderName;\r\n        string senderPhone;\r\n        string receiverName;\r\n        DeliveryStatus status;\r\n    }\r\n\r\n    mapping(uint => Shipment) public shipments;\r\n\r\n    address public owner;\r\n    address public escrow;\r\n    mapping(address => bool) public admins;\r\n\r\n    event ShipmentCreated(uint orderId, address sender);\r\n    event StatusUpdated(uint orderId, DeliveryStatus status);\r\n    event AdminUpdated(address admin, bool enabled);\r\n\r\n    constructor(address escrowAddress) {\r\n        require(escrowAddress != address(0), \"Invalid escrow address\");\r\n        owner = msg.sender;\r\n        escrow = escrowAddress;\r\n        admins[msg.sender] = true;\r\n    }\r\n\r\n    modifier onlyOwner() {\r\n        require(msg.sender == owner, \"Only owner\");\r\n        _;\r\n    }\r\n\r\n    modifier onlyAdmin() {\r\n        require(msg.sender == owner || admins[msg.sender], \"Only admin\");\r\n        _;\r\n    }\r\n\r\n    modifier onlyEscrow() {\r\n        require(msg.sender == escrow, \"Only escrow contract\");\r\n        _;\r\n    }\r\n\r\n    function setAdmin(address admin, bool enabled) external onlyOwner {\r\n        require(admin != address(0), \"Invalid admin\");\r\n        admins[admin] = enabled;\r\n        emit AdminUpdated(admin, enabled);\r\n    }\r\n\r\n    function createShipment(\r\n        uint orderId,\r\n        address sender,\r\n        string calldata pickupLocation,\r\n        string calldata dropoffLocation,\r\n        string calldata senderName,\r\n        string calldata senderPhone,\r\n        string calldata receiverName\r\n    ) external onlyEscrow {\r\n        require(shipments[orderId].orderId == 0, \"Shipment exists\");\r\n\r\n        shipments[orderId] = Shipment(\r\n            orderId,\r\n            sender,\r\n            pickupLocation,\r\n            dropoffLocation,\r\n            senderName,\r\n            senderPhone,\r\n            receiverName,\r\n            DeliveryStatus.NotCollected\r\n        );\r\n\r\n        emit ShipmentCreated(orderId, sender);\r\n    }\r\n\r\n    function markCollected(uint orderId) external onlyAdmin {\r\n        Shipment storage shipment = shipments[orderId];\r\n        require(shipment.orderId != 0, \"Shipment not found\");\r\n        require(shipment.status == DeliveryStatus.NotCollected, \"Invalid status\");\r\n\r\n        shipment.status = DeliveryStatus.InTransit;\r\n        emit StatusUpdated(orderId, shipment.status);\r\n    }\r\n\r\n    function markDelivered(uint orderId) external onlyAdmin {\r\n        Shipment storage shipment = shipments[orderId];\r\n        require(shipment.orderId != 0, \"Shipment not found\");\r\n        require(shipment.status != DeliveryStatus.Delivered, \"Already delivered\");\r\n\r\n        shipment.status = DeliveryStatus.Delivered;\r\n        emit StatusUpdated(orderId, shipment.status);\r\n    }\r\n\r\n    function getShipment(uint orderId)\r\n        external\r\n        view\r\n        returns (\r\n            uint,\r\n            address,\r\n            string memory,\r\n            string memory,\r\n            string memory,\r\n            string memory,\r\n            string memory,\r\n            DeliveryStatus\r\n        )\r\n    {\r\n        Shipment memory shipment = shipments[orderId];\r\n        require(shipment.orderId != 0, \"Shipment not found\");\r\n        return (\r\n            shipment.orderId,\r\n            shipment.sender,\r\n            shipment.pickupLocation,\r\n            shipment.dropoffLocation,\r\n            shipment.senderName,\r\n            shipment.senderPhone,\r\n            shipment.receiverName,\r\n            shipment.status\r\n        );\r\n    }\r\n}\r\n",
  "sourcePath": "C:\\Users\\24013711\\fake_delivery\\C373-FA-Code\\contracts\\ShippingTracking.sol",
  "compiler": {
    "name": "solc",
    "version": "0.8.19+commit.7dd6d404.Emscripten.clang"
  },
  "schemaVersion": "3.4.16",
  "updatedAt": "2026-01-28T08:06:50.485Z",
  "networkType": "ethereum",
  "devdoc": {
    "kind": "dev",
    "methods": {},
    "version": 1
  },
  "userdoc": {
    "kind": "user",
    "methods": {},
    "version": 1
  }
}