{
  "contractName": "ShippingTracking",
  "abi": [
    {
      "inputs": [
        {
          "internalType": "address",
          "name": "escrowAddress",
          "type": "address"
        }
      ],
      "stateMutability": "nonpayable",
      "type": "constructor"
    },
    {
      "anonymous": false,
      "inputs": [
        {
          "indexed": false,
          "internalType": "address",
          "name": "admin",
          "type": "address"
        },
        {
          "indexed": false,
          "internalType": "bool",
          "name": "enabled",
          "type": "bool"
        }
      ],
      "name": "AdminUpdated",
      "type": "event"
    },
    {
      "anonymous": false,
      "inputs": [
        {
          "indexed": false,
          "internalType": "uint256",
          "name": "orderId",
          "type": "uint256"
        },
        {
          "indexed": false,
          "internalType": "address",
          "name": "sender",
          "type": "address"
        }
      ],
      "name": "ShipmentCreated",
      "type": "event"
    },
    {
      "anonymous": false,
      "inputs": [
        {
          "indexed": false,
          "internalType": "uint256",
          "name": "orderId",
          "type": "uint256"
        },
        {
          "indexed": false,
          "internalType": "enum ShippingTracking.DeliveryStatus",
          "name": "status",
          "type": "uint8"
        }
      ],
      "name": "StatusUpdated",
      "type": "event"
    },
    {
      "inputs": [
        {
          "internalType": "address",
          "name": "",
          "type": "address"
        }
      ],
      "name": "admins",
      "outputs": [
        {
          "internalType": "bool",
          "name": "",
          "type": "bool"
        }
      ],
      "stateMutability": "view",
      "type": "function",
      "constant": true
    },
    {
      "inputs": [],
      "name": "escrow",
      "outputs": [
        {
          "internalType": "address",
          "name": "",
          "type": "address"
        }
      ],
      "stateMutability": "view",
      "type": "function",
      "constant": true
    },
    {
      "inputs": [],
      "name": "owner",
      "outputs": [
        {
          "internalType": "address",
          "name": "",
          "type": "address"
        }
      ],
      "stateMutability": "view",
      "type": "function",
      "constant": true
    },
    {
      "inputs": [
        {
          "internalType": "uint256",
          "name": "",
          "type": "uint256"
        }
      ],
      "name": "shipments",
      "outputs": [
        {
          "internalType": "uint256",
          "name": "orderId",
          "type": "uint256"
        },
        {
          "internalType": "address",
          "name": "sender",
          "type": "address"
        },
        {
          "internalType": "string",
          "name": "pickupLocation",
          "type": "string"
        },
        {
          "internalType": "string",
          "name": "dropoffLocation",
          "type": "string"
        },
        {
          "internalType": "string",
          "name": "senderName",
          "type": "string"
        },
        {
          "internalType": "string",
          "name": "senderPhone",
          "type": "string"
        },
        {
          "internalType": "string",
          "name": "receiverName",
          "type": "string"
        },
        {
          "internalType": "enum ShippingTracking.DeliveryStatus",
          "name": "status",
          "type": "uint8"
        }
      ],
      "stateMutability": "view",
      "type": "function",
      "constant": true
    },
    {
      "inputs": [
        {
          "internalType": "address",
          "name": "admin",
          "type": "address"
        },
        {
          "internalType": "bool",
          "name": "enabled",
          "type": "bool"
        }
      ],
      "name": "setAdmin",
      "outputs": [],
      "stateMutability": "nonpayable",
      "type": "function"
    },
    {
      "inputs": [
        {
          "internalType": "uint256",
          "name": "orderId",
          "type": "uint256"
        },
        {
          "internalType": "address",
          "name": "sender",
          "type": "address"
        },
        {
          "internalType": "string",
          "name": "pickupLocation",
          "type": "string"
        },
        {
          "internalType": "string",
          "name": "dropoffLocation",
          "type": "string"
        },
        {
          "internalType": "string",
          "name": "senderName",
          "type": "string"
        },
        {
          "internalType": "string",
          "name": "senderPhone",
          "type": "string"
        },
        {
          "internalType": "string",
          "name": "receiverName",
          "type": "string"
        }
      ],
      "name": "createShipment",
      "outputs": [],
      "stateMutability": "nonpayable",
      "type": "function"
    },
    {
      "inputs": [
        {
          "internalType": "uint256",
          "name": "orderId",
          "type": "uint256"
        }
      ],
      "name": "markCollected",
      "outputs": [],
      "stateMutability": "nonpayable",
      "type": "function"
    },
    {
      "inputs": [
        {
          "internalType": "uint256",
          "name": "orderId",
          "type": "uint256"
        }
      ],
      "name": "markDelivered",
      "outputs": [],
      "stateMutability": "nonpayable",
      "type": "function"
    },
    {
      "inputs": [
        {
          "internalType": "uint256",
          "name": "orderId",
          "type": "uint256"
        }
      ],
      "name": "getShipment",
      "outputs": [
        {
          "internalType": "uint256",
          "name": "",
          "type": "uint256"
        },
        {
          "internalType": "address",
          "name": "",
          "type": "address"
        },
        {
          "internalType": "string",
          "name": "",
          "type": "string"
        },
        {
          "internalType": "string",
          "name": "",
          "type": "string"
        },
        {
          "internalType": "string",
          "name": "",
          "type": "string"
        },
        {
          "internalType": "string",
          "name": "",
          "type": "string"
        },
        {
          "internalType": "string",
          "name": "",
          "type": "string"
        },
        {
          "internalType": "enum ShippingTracking.DeliveryStatus",
          "name": "",
          "type": "uint8"
        }
      ],
      "stateMutability": "view",
      "type": "function",
      "constant": true
    }
  ],
  "bytecode": "0x6080346100de57601f6112dd38819003918201601f19168301916001600160401b038311848410176100e3578084926020946040528339810103126100de57516001600160a01b038116908190036100de5780156100995760018060a01b03193381600154161760015560025416176002553360005260036020526040600020600160ff198254161790556040516111e390816100fa8239f35b60405162461bcd60e51b815260206004820152601660248201527f496e76616c696420657363726f772061646472657373000000000000000000006044820152606490fd5b600080fd5b634e487b7160e01b600052604160045260246000fdfe608080604052600436101561001357600080fd5b600090813560e01c908163092b374014610d74575080632ac08a9314610ce8578063429b62e514610ca95780634b0bddd214610bb257806375ca638614610ab35780638da5cb5b14610a8a578063c6c60bda14610222578063e2fdcc17146101f95763eb826a5f1461008457600080fd5b346101f65760203660031901126101f6576001546001600160a01b0390600435908216331480156101e0575b6100b990611133565b808352826020526007604084206100d28154151561116c565b019182549260ff841660038110156101cc57600214610193576002859460ff19161790557f2da7b23ca63c1eb969eee5fae4acb98186abecf5358b0354a82a5183ebca6b2a6040805184815260026020820152a160025416803b1561018f576024839260405194859384926388685cd960e01b845260048401525af180156101845761015c575080f35b6001600160401b0381116101705760405280f35b634e487b7160e01b82526041600452602482fd5b6040513d84823e3d90fd5b5050fd5b60405162461bcd60e51b8152602060048201526011602482015270105b1c9958591e4819195b1a5d995c9959607a1b6044820152606490fd5b634e487b7160e01b86526021600452602486fd5b503383526003602052604083205460ff166100b0565b80fd5b50346101f657806003193601126101f6576002546040516001600160a01b039091168152602090f35b50346101f65760e03660031901126101f65760248035906001600160a01b0382168203610a86576044356001600160401b038111610a82576102689036906004016110c0565b91906064356001600160401b038111610a7e576102899036906004016110c0565b906084356001600160401b038111610a7a576102a99036906004016110c0565b9060a4356001600160401b038111610a76576102c99036906004016110c0565b92909360c4356001600160401b038111610a72576102eb9036906004016110c0565b60025491989097916001600160a01b03163303610a37576004358d528c60205260408d2054610a01576040519a6103218c610fac565b6004358c526001600160a01b038d1660208d0152610341913691906110ed565b60408b01523690610351926110ed565b60608901523690610361926110ed565b60808701523690610371926110ed565b60a08501523690610381926110ed565b60c08301528360e0830152600435845283602052604084208251815560018101600160a01b600190036020850151166bffffffffffffffffffffffff60a01b82541617905560408301518051906001600160401b0382116106cb5781906103eb6002850154610f72565b601f81116109b1575b50602090601f8311600114610942578892610937575b50508160011b916000199060031b1c19161760028201555b60608301518051906001600160401b0382116106cb5781906104476003850154610f72565b601f81116108e7575b50602090601f831160011461087857889261086d575b50508160011b916000199060031b1c19161760038201555b60808301518051906001600160401b0382116106cb5781906104a36004850154610f72565b601f811161081d575b50602090601f83116001146107ae5788926107a3575b50508160011b916000199060031b1c19161760048201555b60a08301518051906001600160401b0382116106cb5781906104ff6005850154610f72565b601f8111610753575b50602090601f83116001146106e95788926106de575b50508160011b916000199060031b1c19161760058201555b60c08301518051906001600160401b0382116106cb576105596006840154610f72565b601f8111610683575b50602090601f831160011461061457918060e094926007948a92610609575b50508160011b916000199060031b1c19161760068201555b019201519060038210156105f75750815460ff191660ff919091161790556040805160043581526001600160a01b039290921660208301527fe0f5cc97a7413c8504a43a017dde74af4822f66c59d6014c80548654138bc73691a180f35b634e487b7160e01b8552602160045284fd5b015190503880610581565b600684018852602088209190601f198416895b81811061066b575092600192859260079660e0989610610652575b505050811b016006820155610599565b015160001960f88460031b161c19169055388080610642565b92936020600181928786015181550195019301610627565b60068401885260208820601f840160051c810191602085106106c1575b601f0160051c01905b8181106106b65750610562565b8881556001016106a9565b90915081906106a0565b634e487b7160e01b875260416004528387fd5b01519050388061051e565b600585018952602089209250601f198416895b81811061073b5750908460019594939210610722575b505050811b016005820155610536565b015160001960f88460031b161c19169055388080610712565b929360206001819287860151815501950193016106fc565b90915060058401885260208820601f840160051c81016020851061079c575b90849392915b601f830160051c8201811061078e575050610508565b8a8155859450600101610778565b5080610772565b0151905038806104c2565b9250600484018852602088209088935b601f1984168510610802576001945083601f198116106107e9575b505050811b0160048201556104da565b015160001960f88460031b161c191690553880806107d9565b818101518355602094850194600190930192909101906107be565b90915060048401885260208820601f840160051c810160208510610866575b90849392915b601f830160051c820181106108585750506104ac565b8a8155859450600101610842565b508061083c565b015190503880610466565b9250600384018852602088209088935b601f19841685106108cc576001945083601f198116106108b3575b505050811b01600382015561047e565b015160001960f88460031b161c191690553880806108a3565b81810151835560209485019460019093019290910190610888565b90915060038401885260208820601f840160051c810160208510610930575b90849392915b601f830160051c82018110610922575050610450565b8a815585945060010161090c565b5080610906565b01519050388061040a565b9250600284018852602088209088935b601f1984168510610996576001945083601f1981161061097d575b505050811b016002820155610422565b015160001960f88460031b161c1916905538808061096d565b81810151835560209485019460019093019290910190610952565b90915060028401885260208820601f840160051c8101602085106109fa575b90849392915b601f830160051c820181106109ec5750506103f4565b8a81558594506001016109d6565b50806109d0565b60405162461bcd60e51b815260206004820152600f818c01526e536869706d656e742065786973747360881b6044820152606490fd5b60405162461bcd60e51b8152602060048201526014818c01527313db9b1e48195cd8dc9bddc818dbdb9d1c9858dd60621b6044820152606490fd5b8b80fd5b8980fd5b8780fd5b8580fd5b8380fd5b8280fd5b50346101f657806003193601126101f6576001546040516001600160a01b039091168152602090f35b50346101f65760203660031901126101f65760043560018060a01b036001541633148015610b9c575b610ae590611133565b80825281602052600760408320610afe8154151561116c565b019081549060ff82166003811015610b8857610b52577f2da7b23ca63c1eb969eee5fae4acb98186abecf5358b0354a82a5183ebca6b2a92600160409360ff1916179055815190815260016020820152a180f35b60405162461bcd60e51b815260206004820152600e60248201526d496e76616c69642073746174757360901b6044820152606490fd5b634e487b7160e01b85526021600452602485fd5b503382526003602052604082205460ff16610adc565b50346101f65760403660031901126101f657610bcc6110a5565b60243590811515809203610a86576001546001600160a01b03919082163303610c775716908115610c4257816040917f235bc17e7930760029e9f4d860a2a8089976de5b381cf8380fc11c1d88a11133938552600360205282852060ff1981541660ff831617905582519182526020820152a180f35b60405162461bcd60e51b815260206004820152600d60248201526c24b73b30b634b21030b236b4b760991b6044820152606490fd5b60405162461bcd60e51b815260206004820152600a60248201526927b7363c9037bbb732b960b11b6044820152606490fd5b50346101f65760203660031901126101f65760209060ff906040906001600160a01b03610cd46110a5565b168152600384522054166040519015158152f35b50346101f65760203660031901126101f6576004358152602081905260409020805460018201546001600160a01b031691610d7090610d2960028201610fff565b90610d3660038201610fff565b610d4260048301610fff565b610d4e60058401610fff565b9160ff6007610d5f60068701610fff565b950154169460405198899889610ed8565b0390f35b905034610e94576020366003190112610e94576004358252816020526040822090610d9e81610fac565b8154815260018201546001600160a01b039081166020830190815291610dc660028501610fff565b9360408201948552610dda60038201610fff565b9260608301938452610dee60048301610fff565b60808401908152610e0160058401610fff565b9160a0850192835260ff6007610e1960068701610fff565b9560c088019687520154169460e08101956003811015610e80578652610e418151151561116c565b51965116965194519051915192519351946003861015610e6c5760405198508897610d709789610ed8565b634e487b7160e01b89526021600452602489fd5b634e487b7160e01b8b52602160045260248bfd5b5080fd5b919082519283825260005b848110610ec4575050826000602080949584010152601f8019910116010190565b602081830181015184830182015201610ea3565b9897969490610f3e94610f14610f4c98958c6020610f3097610f2296835260018060a01b031691015260408d61010091829101528d0190610e98565b908b820360608d0152610e98565b9089820360808b0152610e98565b9087820360a0890152610e98565b9085820360c0870152610e98565b926003821015610f5c5760e00152565b634e487b7160e01b600052602160045260246000fd5b90600182811c92168015610fa2575b6020831014610f8c57565b634e487b7160e01b600052602260045260246000fd5b91607f1691610f81565b61010081019081106001600160401b03821117610fc857604052565b634e487b7160e01b600052604160045260246000fd5b90601f801991011681019081106001600160401b03821117610fc857604052565b906040519182600082549261101384610f72565b908184526001948581169081600014611082575060011461103f575b505061103d92500383610fde565b565b9093915060005260209081600020936000915b81831061106a57505061103d9350820101388061102f565b85548884018501529485019487945091830191611052565b91505061103d94506020925060ff191682840152151560051b820101388061102f565b600435906001600160a01b03821682036110bb57565b600080fd5b9181601f840112156110bb578235916001600160401b0383116110bb57602083818601950101116110bb57565b9291926001600160401b038211610fc85760405191611116601f8201601f191660200184610fde565b8294818452818301116110bb578281602093846000960137010152565b1561113a57565b60405162461bcd60e51b815260206004820152600a60248201526927b7363c9030b236b4b760b11b6044820152606490fd5b1561117357565b60405162461bcd60e51b815260206004820152601260248201527114da1a5c1b595b9d081b9bdd08199bdd5b9960721b6044820152606490fdfea2646970667358221220792fec2b0fe72ba2309cabc373535f3d32c5b8bbd3a1f2a130c09eb7b5c42e5e64736f6c63430008130033",
  "immutableReferences": {},
  "source": "// SPDX-License-Identifier: MIT\r\npragma solidity ^0.8.0;\r\n\r\ncontract ShippingTracking {\r\n    enum DeliveryStatus {\r\n        NotCollected,\r\n        InTransit,\r\n        Delivered\r\n    }\r\n\r\n    struct Shipment {\r\n        uint orderId;\r\n        address sender;\r\n        string pickupLocation;\r\n        string dropoffLocation;\r\n        string senderName;\r\n        string senderPhone;\r\n        string receiverName;\r\n        DeliveryStatus status;\r\n    }\r\n\r\n    mapping(uint => Shipment) public shipments;\r\n\r\n    address public owner;\r\n    address public escrow;\r\n    mapping(address => bool) public admins;\r\n\r\n    event ShipmentCreated(uint orderId, address sender);\r\n    event StatusUpdated(uint orderId, DeliveryStatus status);\r\n    event AdminUpdated(address admin, bool enabled);\r\n\r\n    constructor(address escrowAddress) {\r\n        require(escrowAddress != address(0), \"Invalid escrow address\");\r\n        owner = msg.sender;\r\n        escrow = escrowAddress;\r\n        admins[msg.sender] = true;\r\n    }\r\n\r\n    modifier onlyOwner() {\r\n        require(msg.sender == owner, \"Only owner\");\r\n        _;\r\n    }\r\n\r\n    modifier onlyAdmin() {\r\n        require(msg.sender == owner || admins[msg.sender], \"Only admin\");\r\n        _;\r\n    }\r\n\r\n    modifier onlyEscrow() {\r\n        require(msg.sender == escrow, \"Only escrow contract\");\r\n        _;\r\n    }\r\n\r\n    function setAdmin(address admin, bool enabled) external onlyOwner {\r\n        require(admin != address(0), \"Invalid admin\");\r\n        admins[admin] = enabled;\r\n        emit AdminUpdated(admin, enabled);\r\n    }\r\n\r\n    function createShipment(\r\n        uint orderId,\r\n        address sender,\r\n        string calldata pickupLocation,\r\n        string calldata dropoffLocation,\r\n        string calldata senderName,\r\n        string calldata senderPhone,\r\n        string calldata receiverName\r\n    ) external onlyEscrow {\r\n        require(shipments[orderId].orderId == 0, \"Shipment exists\");\r\n\r\n        shipments[orderId] = Shipment(\r\n            orderId,\r\n            sender,\r\n            pickupLocation,\r\n            dropoffLocation,\r\n            senderName,\r\n            senderPhone,\r\n            receiverName,\r\n            DeliveryStatus.NotCollected\r\n        );\r\n\r\n        emit ShipmentCreated(orderId, sender);\r\n    }\r\n\r\n    function markCollected(uint orderId) external onlyAdmin {\r\n        Shipment storage shipment = shipments[orderId];\r\n        require(shipment.orderId != 0, \"Shipment not found\");\r\n        require(shipment.status == DeliveryStatus.NotCollected, \"Invalid status\");\r\n\r\n        shipment.status = DeliveryStatus.InTransit;\r\n        emit StatusUpdated(orderId, shipment.status);\r\n    }\r\n\r\n    function markDelivered(uint orderId) external onlyAdmin {\r\n        Shipment storage shipment = shipments[orderId];\r\n        require(shipment.orderId != 0, \"Shipment not found\");\r\n        require(shipment.status != DeliveryStatus.Delivered, \"Already delivered\");\r\n\r\n        shipment.status = DeliveryStatus.Delivered;\r\n        emit StatusUpdated(orderId, shipment.status);\r\n\r\n        IPaymentEscrow(escrow).releasePayment(orderId);\r\n    }\r\n\r\n    function getShipment(uint orderId)\r\n        external\r\n        view\r\n        returns (\r\n            uint,\r\n            address,\r\n            string memory,\r\n            string memory,\r\n            string memory,\r\n            string memory,\r\n            string memory,\r\n            DeliveryStatus\r\n        )\r\n    {\r\n        Shipment memory shipment = shipments[orderId];\r\n        require(shipment.orderId != 0, \"Shipment not found\");\r\n        return (\r\n            shipment.orderId,\r\n            shipment.sender,\r\n            shipment.pickupLocation,\r\n            shipment.dropoffLocation,\r\n            shipment.senderName,\r\n            shipment.senderPhone,\r\n            shipment.receiverName,\r\n            shipment.status\r\n        );\r\n    }\r\n}\r\n\r\ninterface IPaymentEscrow {\r\n    function releasePayment(uint orderId) external;\r\n}\r\n",
  "sourcePath": "C:\\Users\\24013711\\fake_delivery\\C373-FA-Code\\contracts\\ShippingTracking.sol",
  "compiler": {
    "name": "solc",
    "version": "0.8.19+commit.7dd6d404.Emscripten.clang"
  },
  "schemaVersion": "3.4.16",
  "updatedAt": "2026-01-29T08:12:33.605Z",
  "networkType": "ethereum",
  "devdoc": {
    "kind": "dev",
    "methods": {},
    "version": 1
  },
  "userdoc": {
    "kind": "user",
    "methods": {},
    "version": 1
  }
}