{
  "contractName": "ShippingTracking",
  "abi": [
    {
      "inputs": [
        {
          "internalType": "address",
          "name": "escrowAddress",
          "type": "address"
        }
      ],
      "stateMutability": "nonpayable",
      "type": "constructor"
    },
    {
      "anonymous": false,
      "inputs": [
        {
          "indexed": false,
          "internalType": "uint256",
          "name": "orderId",
          "type": "uint256"
        },
        {
          "indexed": false,
          "internalType": "address",
          "name": "sender",
          "type": "address"
        }
      ],
      "name": "ShipmentCreated",
      "type": "event"
    },
    {
      "anonymous": false,
      "inputs": [
        {
          "indexed": false,
          "internalType": "uint256",
          "name": "orderId",
          "type": "uint256"
        },
        {
          "indexed": false,
          "internalType": "enum ShippingTracking.DeliveryStatus",
          "name": "status",
          "type": "uint8"
        }
      ],
      "name": "StatusUpdated",
      "type": "event"
    },
    {
      "inputs": [],
      "name": "escrow",
      "outputs": [
        {
          "internalType": "address",
          "name": "",
          "type": "address"
        }
      ],
      "stateMutability": "view",
      "type": "function",
      "constant": true
    },
    {
      "inputs": [],
      "name": "owner",
      "outputs": [
        {
          "internalType": "address",
          "name": "",
          "type": "address"
        }
      ],
      "stateMutability": "view",
      "type": "function",
      "constant": true
    },
    {
      "inputs": [
        {
          "internalType": "uint256",
          "name": "",
          "type": "uint256"
        }
      ],
      "name": "shipments",
      "outputs": [
        {
          "internalType": "uint256",
          "name": "orderId",
          "type": "uint256"
        },
        {
          "internalType": "address",
          "name": "sender",
          "type": "address"
        },
        {
          "internalType": "string",
          "name": "pickupLocation",
          "type": "string"
        },
        {
          "internalType": "string",
          "name": "dropoffLocation",
          "type": "string"
        },
        {
          "internalType": "string",
          "name": "senderName",
          "type": "string"
        },
        {
          "internalType": "string",
          "name": "senderPhone",
          "type": "string"
        },
        {
          "internalType": "string",
          "name": "receiverName",
          "type": "string"
        },
        {
          "internalType": "enum ShippingTracking.DeliveryStatus",
          "name": "status",
          "type": "uint8"
        }
      ],
      "stateMutability": "view",
      "type": "function",
      "constant": true
    },
    {
      "inputs": [
        {
          "internalType": "uint256",
          "name": "orderId",
          "type": "uint256"
        },
        {
          "internalType": "address",
          "name": "sender",
          "type": "address"
        },
        {
          "internalType": "string",
          "name": "pickupLocation",
          "type": "string"
        },
        {
          "internalType": "string",
          "name": "dropoffLocation",
          "type": "string"
        },
        {
          "internalType": "string",
          "name": "senderName",
          "type": "string"
        },
        {
          "internalType": "string",
          "name": "senderPhone",
          "type": "string"
        },
        {
          "internalType": "string",
          "name": "receiverName",
          "type": "string"
        }
      ],
      "name": "createShipment",
      "outputs": [],
      "stateMutability": "nonpayable",
      "type": "function"
    },
    {
      "inputs": [
        {
          "internalType": "uint256",
          "name": "orderId",
          "type": "uint256"
        }
      ],
      "name": "markCollected",
      "outputs": [],
      "stateMutability": "nonpayable",
      "type": "function"
    },
    {
      "inputs": [
        {
          "internalType": "uint256",
          "name": "orderId",
          "type": "uint256"
        }
      ],
      "name": "markDelivered",
      "outputs": [],
      "stateMutability": "nonpayable",
      "type": "function"
    },
    {
      "inputs": [
        {
          "internalType": "uint256",
          "name": "orderId",
          "type": "uint256"
        }
      ],
      "name": "getShipment",
      "outputs": [
        {
          "internalType": "uint256",
          "name": "",
          "type": "uint256"
        },
        {
          "internalType": "address",
          "name": "",
          "type": "address"
        },
        {
          "internalType": "string",
          "name": "",
          "type": "string"
        },
        {
          "internalType": "string",
          "name": "",
          "type": "string"
        },
        {
          "internalType": "string",
          "name": "",
          "type": "string"
        },
        {
          "internalType": "string",
          "name": "",
          "type": "string"
        },
        {
          "internalType": "string",
          "name": "",
          "type": "string"
        },
        {
          "internalType": "enum ShippingTracking.DeliveryStatus",
          "name": "",
          "type": "uint8"
        }
      ],
      "stateMutability": "view",
      "type": "function",
      "constant": true
    }
  ],
  "bytecode": "0x6080346100c557601f61107438819003918201601f19168301916001600160401b038311848410176100ca578084926020946040528339810103126100c557516001600160a01b038116908190036100c55780156100805760018060a01b0319338160015416176001556002541617600255604051610f9390816100e18239f35b60405162461bcd60e51b815260206004820152601660248201527f496e76616c696420657363726f772061646472657373000000000000000000006044820152606490fd5b600080fd5b634e487b7160e01b600052604160045260246000fdfe608080604052600436101561001357600080fd5b60003560e01c908163092b374014610b80575080632ac08a9314610af557806375ca638614610a275780638da5cb5b146109fe578063c6c60bda14610184578063e2fdcc171461015b5763eb826a5f1461006c57600080fd5b346101565760203660031901126101565760043561009560018060a01b03600154163314610ee3565b806000526000602052600760406000206100b181541515610f1c565b019081549060ff8216600381101561014057600214610107577f2da7b23ca63c1eb969eee5fae4acb98186abecf5358b0354a82a5183ebca6b2a92600260409360ff1916179055815190815260026020820152a1005b60405162461bcd60e51b8152602060048201526011602482015270105b1c9958591e4819195b1a5d995c9959607a1b6044820152606490fd5b634e487b7160e01b600052602160045260246000fd5b600080fd5b34610156576000366003190112610156576002546040516001600160a01b039091168152602090f35b346101565760e03660031901126101565760248035906001600160a01b0382168203610156576044356001600160401b038111610156576101c9903690600401610e70565b91906064356001600160401b038111610156576101ea903690600401610e70565b906084356001600160401b0381116101565761020a903690600401610e70565b9060a4356001600160401b0381116101565761022a903690600401610e70565b92909360c4356001600160401b0381116101565761024c903690600401610e70565b60025491989097916001600160a01b031633036109c357600435600052600060205260406000205461098d576040519a6102858c610d77565b6004358c526001600160a01b038d1660208d01526102a591369190610e9d565b60408b015236906102b592610e9d565b606089015236906102c592610e9d565b608087015236906102d592610e9d565b60a085015236906102e592610e9d565b60c083015260e0820160009052600435600052600060205260406000208251815560018101600160a01b600190036020850151166bffffffffffffffffffffffff60a01b82541617905560408301518051906001600160401b03821161063d5781906103546002850154610d3d565b601f811161093a575b50602090601f83116001146108c8576000926108bd575b50508160011b916000199060031b1c19161760028201555b60608301518051906001600160401b03821161063d5781906103b16003850154610d3d565b601f811161086a575b50602090601f83116001146107f8576000926107ed575b50508160011b916000199060031b1c19161760038201555b60808301518051906001600160401b03821161063d57819061040e6004850154610d3d565b601f811161079a575b50602090601f83116001146107285760009261071d575b50508160011b916000199060031b1c19161760048201555b60a08301518051906001600160401b03821161063d57819061046b6005850154610d3d565b601f81116106ca575b50602090601f831160011461065d57600092610652575b50508160011b916000199060031b1c19161760058201555b60c08301518051906001600160401b03821161063d576104c66006840154610d3d565b601f81116105f2575b50602090601f831160011461057f57918060e09492600794600092610574575b50508160011b916000199060031b1c19161760068201555b0192015190600382101561056057825460ff191660ff83161783556040805160043581526001600160a01b03861660208201527fe0f5cc97a7413c8504a43a017dde74af4822f66c59d6014c80548654138bc7369190a1005b634e487b7160e01b60009081526021600452fd5b0151905088806104ef565b90601f198316916006850160005260206000209260005b8181106105da575092600192859260079660e09896106105c1575b505050811b016006820155610507565b015160001960f88460031b161c191690558880806105b1565b92936020600181928786015181550195019301610596565b600684016000526020600020601f840160051c81019160208510610633575b601f0160051c01905b81811061062757506104cf565b6000815560010161061a565b9091508190610611565b83634e487b7160e01b60005260416004526000fd5b01519050868061048b565b600585016000908152602081209350601f198516905b8181106106b25750908460019594939210610699575b505050811b0160058201556104a3565b015160001960f88460031b161c19169055868080610689565b92936020600181928786015181550195019301610673565b909150600584016000526020600020601f840160051c810160208510610716575b90849392915b601f830160051c82018110610707575050610474565b600081558594506001016106f1565b50806106eb565b01519050868061042e565b9250600484016000526020600020906000935b601f198416851061077f576001945083601f19811610610766575b505050811b016004820155610446565b015160001960f88460031b161c19169055868080610756565b8181015183556020948501946001909301929091019061073b565b909150600484016000526020600020601f840160051c8101602085106107e6575b90849392915b601f830160051c820181106107d7575050610417565b600081558594506001016107c1565b50806107bb565b0151905086806103d1565b9250600384016000526020600020906000935b601f198416851061084f576001945083601f19811610610836575b505050811b0160038201556103e9565b015160001960f88460031b161c19169055868080610826565b8181015183556020948501946001909301929091019061080b565b909150600384016000526020600020601f840160051c8101602085106108b6575b90849392915b601f830160051c820181106108a75750506103ba565b60008155859450600101610891565b508061088b565b015190508680610374565b9250600284016000526020600020906000935b601f198416851061091f576001945083601f19811610610906575b505050811b01600282015561038c565b015160001960f88460031b161c191690558680806108f6565b818101518355602094850194600190930192909101906108db565b909150600284016000526020600020601f840160051c810160208510610986575b90849392915b601f830160051c8201811061097757505061035d565b60008155859450600101610961565b508061095b565b60405162461bcd60e51b815260206004820152600f818c01526e536869706d656e742065786973747360881b6044820152606490fd5b60405162461bcd60e51b8152602060048201526014818c01527313db9b1e48195cd8dc9bddc818dbdb9d1c9858dd60621b6044820152606490fd5b34610156576000366003190112610156576001546040516001600160a01b039091168152602090f35b3461015657602036600319011261015657600435610a5060018060a01b03600154163314610ee3565b80600052600060205260076040600020610a6c81541515610f1c565b019081549060ff8216600381101561014057610abf577f2da7b23ca63c1eb969eee5fae4acb98186abecf5358b0354a82a5183ebca6b2a92600160409360ff1916179055815190815260016020820152a1005b60405162461bcd60e51b815260206004820152600e60248201526d496e76616c69642073746174757360901b6044820152606490fd5b3461015657602036600319011261015657600435600052600060205260406000208054610b7c60018060a01b0360018401541692610b3560028201610dca565b90610b4260038201610dca565b610b4e60048301610dca565b610b5a60058401610dca565b9160ff6007610b6b60068701610dca565b950154169460405198899889610cb9565b0390f35b346101565760203660031901126101565760043560005260006020526040600020610baa82610d77565b8054825260018101546001600160a01b03908116602084019081529190610bd360028301610dca565b9360408101948552610be760038401610dca565b9260608201938452610bfb60048201610dca565b9260808301938452610c0f60058301610dca565b9060a0840191825260ff6007610c2760068601610dca565b9460c087019586520154169360e08101946003811015610140578552610c4f81511515610f1c565b5196511696519451935190519151925193600385101561014057610b7c9560405198899889610cb9565b919082519283825260005b848110610ca5575050826000602080949584010152601f8019910116010190565b602081830181015184830182015201610c84565b9897969490610d1f94610cf5610d2d98958c6020610d1197610d0396835260018060a01b031691015260408d61010091829101528d0190610c79565b908b820360608d0152610c79565b9089820360808b0152610c79565b9087820360a0890152610c79565b9085820360c0870152610c79565b9260038210156101405760e00152565b90600182811c92168015610d6d575b6020831014610d5757565b634e487b7160e01b600052602260045260246000fd5b91607f1691610d4c565b61010081019081106001600160401b03821117610d9357604052565b634e487b7160e01b600052604160045260246000fd5b90601f801991011681019081106001600160401b03821117610d9357604052565b9060405191826000825492610dde84610d3d565b908184526001948581169081600014610e4d5750600114610e0a575b5050610e0892500383610da9565b565b9093915060005260209081600020936000915b818310610e35575050610e0893508201013880610dfa565b85548884018501529485019487945091830191610e1d565b915050610e0894506020925060ff191682840152151560051b8201013880610dfa565b9181601f84011215610156578235916001600160401b038311610156576020838186019501011161015657565b9291926001600160401b038211610d935760405191610ec6601f8201601f191660200184610da9565b829481845281830111610156578281602093846000960137010152565b15610eea57565b60405162461bcd60e51b815260206004820152600a60248201526927b7363c9037bbb732b960b11b6044820152606490fd5b15610f2357565b60405162461bcd60e51b815260206004820152601260248201527114da1a5c1b595b9d081b9bdd08199bdd5b9960721b6044820152606490fdfea26469706673582212202b736a12653b18e5e69eea96086003031e668127ff9c31311bf5ddefc1d580d164736f6c63430008130033",
  "immutableReferences": {},
  "source": "// SPDX-License-Identifier: MIT\r\npragma solidity ^0.8.0;\n\ncontract ShippingTracking {\n    enum DeliveryStatus {\n        NotCollected,\n        InTransit,\n        Delivered\n    }\n\n    struct Shipment {\n        uint orderId;\n        address sender;\n        string pickupLocation;\n        string dropoffLocation;\n        string senderName;\n        string senderPhone;\n        string receiverName;\n        DeliveryStatus status;\n    }\n\n    mapping(uint => Shipment) public shipments;\n\n    address public owner;\n    address public escrow;\n\n    event ShipmentCreated(uint orderId, address sender);\n    event StatusUpdated(uint orderId, DeliveryStatus status);\n\n    constructor(address escrowAddress) {\n        require(escrowAddress != address(0), \"Invalid escrow address\");\n        owner = msg.sender;\n        escrow = escrowAddress;\n    }\n\n    modifier onlyOwner() {\n        require(msg.sender == owner, \"Only owner\");\n        _;\n    }\n\n    modifier onlyEscrow() {\n        require(msg.sender == escrow, \"Only escrow contract\");\n        _;\n    }\n\n    function createShipment(\n        uint orderId,\n        address sender,\n        string calldata pickupLocation,\n        string calldata dropoffLocation,\n        string calldata senderName,\n        string calldata senderPhone,\n        string calldata receiverName\n    ) external onlyEscrow {\n        require(shipments[orderId].orderId == 0, \"Shipment exists\");\n\n        shipments[orderId] = Shipment(\n            orderId,\n            sender,\n            pickupLocation,\n            dropoffLocation,\n            senderName,\n            senderPhone,\n            receiverName,\n            DeliveryStatus.NotCollected\n        );\n\n        emit ShipmentCreated(orderId, sender);\n    }\n\n    function markCollected(uint orderId) external onlyOwner {\n        Shipment storage shipment = shipments[orderId];\n        require(shipment.orderId != 0, \"Shipment not found\");\n        require(shipment.status == DeliveryStatus.NotCollected, \"Invalid status\");\n\n        shipment.status = DeliveryStatus.InTransit;\n        emit StatusUpdated(orderId, shipment.status);\n    }\n\n    function markDelivered(uint orderId) external onlyOwner {\n        Shipment storage shipment = shipments[orderId];\n        require(shipment.orderId != 0, \"Shipment not found\");\n        require(shipment.status != DeliveryStatus.Delivered, \"Already delivered\");\n\n        shipment.status = DeliveryStatus.Delivered;\n        emit StatusUpdated(orderId, shipment.status);\n    }\n\n    function getShipment(uint orderId)\n        external\n        view\n        returns (\n            uint,\n            address,\n            string memory,\n            string memory,\n            string memory,\n            string memory,\n            string memory,\n            DeliveryStatus\n        )\n    {\n        Shipment memory shipment = shipments[orderId];\n        require(shipment.orderId != 0, \"Shipment not found\");\n        return (\n            shipment.orderId,\n            shipment.sender,\n            shipment.pickupLocation,\n            shipment.dropoffLocation,\n            shipment.senderName,\n            shipment.senderPhone,\n            shipment.receiverName,\n            shipment.status\n        );\n    }\n}\n",
  "sourcePath": "C:\\Users\\24013711\\fake_delivery\\C373-FA-Code\\contracts\\ShippingTracking.sol",
  "compiler": {
    "name": "solc",
    "version": "0.8.19+commit.7dd6d404.Emscripten.clang"
  },
  "schemaVersion": "3.4.16",
  "updatedAt": "2026-01-22T07:45:24.419Z",
  "networkType": "ethereum",
  "devdoc": {
    "kind": "dev",
    "methods": {},
    "version": 1
  },
  "userdoc": {
    "kind": "user",
    "methods": {},
    "version": 1
  }
}