{
  "contractName": "ShippingTracking",
  "abi": [
    {
      "inputs": [
        {
          "internalType": "address",
          "name": "escrowAddress",
          "type": "address"
        }
      ],
      "stateMutability": "nonpayable",
      "type": "constructor"
    },
    {
      "inputs": [],
      "name": "escrow",
      "outputs": [
        {
          "internalType": "contract IPaymentEscrow",
          "name": "",
          "type": "address"
        }
      ],
      "stateMutability": "view",
      "type": "function"
    },
    {
      "inputs": [
        {
          "internalType": "uint256",
          "name": "_orderId",
          "type": "uint256"
        }
      ],
      "name": "markShipped",
      "outputs": [],
      "stateMutability": "nonpayable",
      "type": "function"
    },
    {
      "inputs": [
        {
          "internalType": "uint256",
          "name": "_orderId",
          "type": "uint256"
        }
      ],
      "name": "confirmDelivery",
      "outputs": [],
      "stateMutability": "nonpayable",
      "type": "function"
    }
  ],
  "bytecode": "0x608060405234801561001057600080fd5b506040516105743803806105748339818101604052810190610032919061014a565b600073ffffffffffffffffffffffffffffffffffffffff168173ffffffffffffffffffffffffffffffffffffffff16036100a1576040517f08c379a0000000000000000000000000000000000000000000000000000000008152600401610098906101d4565b60405180910390fd5b806000806101000a81548173ffffffffffffffffffffffffffffffffffffffff021916908373ffffffffffffffffffffffffffffffffffffffff160217905550506101f4565b600080fd5b600073ffffffffffffffffffffffffffffffffffffffff82169050919050565b6000610117826100ec565b9050919050565b6101278161010c565b811461013257600080fd5b50565b6000815190506101448161011e565b92915050565b6000602082840312156101605761015f6100e7565b5b600061016e84828501610135565b91505092915050565b600082825260208201905092915050565b7f496e76616c696420657363726f77206164647265737300000000000000000000600082015250565b60006101be601683610177565b91506101c982610188565b602082019050919050565b600060208201905081810360008301526101ed816101b1565b9050919050565b610371806102036000396000f3fe608060405234801561001057600080fd5b50600436106100415760003560e01c8063e2fdcc1714610046578063eed90d6b14610064578063fd84cb9714610080575b600080fd5b61004e61009c565b60405161005b919061025f565b60405180910390f35b61007e600480360381019061007991906102b5565b6100c0565b005b61009a600480360381019061009591906102b5565b610150565b005b60008054906101000a900473ffffffffffffffffffffffffffffffffffffffff1681565b60008054906101000a900473ffffffffffffffffffffffffffffffffffffffff1673ffffffffffffffffffffffffffffffffffffffff16638b74998d82336040518363ffffffff1660e01b815260040161011b929190610312565b600060405180830381600087803b15801561013557600080fd5b505af1158015610149573d6000803e3d6000fd5b5050505050565b60008054906101000a900473ffffffffffffffffffffffffffffffffffffffff1673ffffffffffffffffffffffffffffffffffffffff16630a77808082336040518363ffffffff1660e01b81526004016101ab929190610312565b600060405180830381600087803b1580156101c557600080fd5b505af11580156101d9573d6000803e3d6000fd5b5050505050565b600073ffffffffffffffffffffffffffffffffffffffff82169050919050565b6000819050919050565b600061022561022061021b846101e0565b610200565b6101e0565b9050919050565b60006102378261020a565b9050919050565b60006102498261022c565b9050919050565b6102598161023e565b82525050565b60006020820190506102746000830184610250565b92915050565b600080fd5b6000819050919050565b6102928161027f565b811461029d57600080fd5b50565b6000813590506102af81610289565b92915050565b6000602082840312156102cb576102ca61027a565b5b60006102d9848285016102a0565b91505092915050565b6102eb8161027f565b82525050565b60006102fc826101e0565b9050919050565b61030c816102f1565b82525050565b600060408201905061032760008301856102e2565b6103346020830184610303565b939250505056fea2646970667358221220bbe63fab6adf32b30a093dd7eedb45e6e2471f0286fa382bf58cbb96af72a3fc64736f6c63430008130033",
  "immutableReferences": {},
  "source": "// SPDX-License-Identifier: MIT\npragma solidity ^0.8.0;\n\ninterface IPaymentEscrow {\n    function markShippedFromShipping(uint _orderId, address caller) external;\n    function confirmDeliveryFromShipping(uint _orderId, address caller) external;\n}\n\ncontract ShippingTracking {\n    IPaymentEscrow public escrow;\n\n    constructor(address escrowAddress) {\n        require(escrowAddress != address(0), \"Invalid escrow address\");\n        escrow = IPaymentEscrow(escrowAddress);\n    }\n\n    function markShipped(uint _orderId) public {\n        escrow.markShippedFromShipping(_orderId, msg.sender);\n    }\n\n    function confirmDelivery(uint _orderId) public {\n        escrow.confirmDeliveryFromShipping(_orderId, msg.sender);\n    }\n}\n",
  "sourcePath": "C:\\Users\\24016580\\Downloads\\C373 FA Code\\contracts\\ShippingTracking.sol",
  "compiler": {
    "name": "solc",
    "version": "0.8.19+commit.7dd6d404.Emscripten.clang"
  },
  "schemaVersion": "3.4.16",
  "updatedAt": "2026-01-22T06:47:40.606Z",
  "devdoc": {
    "kind": "dev",
    "methods": {},
    "version": 1
  },
  "userdoc": {
    "kind": "user",
    "methods": {},
    "version": 1
  }
}