{
  "contractName": "MarketplaceContract",
  "abi": [
    {
      "anonymous": false,
      "inputs": [
        {
          "indexed": false,
          "internalType": "uint256",
          "name": "orderId",
          "type": "uint256"
        },
        {
          "indexed": false,
          "internalType": "address",
          "name": "buyer",
          "type": "address"
        },
        {
          "indexed": false,
          "internalType": "address",
          "name": "seller",
          "type": "address"
        },
        {
          "indexed": false,
          "internalType": "uint256",
          "name": "amount",
          "type": "uint256"
        }
      ],
      "name": "OrderCreated",
      "type": "event"
    },
    {
      "anonymous": false,
      "inputs": [
        {
          "indexed": false,
          "internalType": "uint256",
          "name": "orderId",
          "type": "uint256"
        }
      ],
      "name": "OrderDelivered",
      "type": "event"
    },
    {
      "anonymous": false,
      "inputs": [
        {
          "indexed": false,
          "internalType": "uint256",
          "name": "orderId",
          "type": "uint256"
        }
      ],
      "name": "OrderShipped",
      "type": "event"
    },
    {
      "inputs": [],
      "name": "orderCount",
      "outputs": [
        {
          "internalType": "uint256",
          "name": "",
          "type": "uint256"
        }
      ],
      "stateMutability": "view",
      "type": "function"
    },
    {
      "inputs": [
        {
          "internalType": "uint256",
          "name": "",
          "type": "uint256"
        }
      ],
      "name": "orders",
      "outputs": [
        {
          "internalType": "uint256",
          "name": "orderId",
          "type": "uint256"
        },
        {
          "internalType": "address",
          "name": "buyer",
          "type": "address"
        },
        {
          "internalType": "address",
          "name": "seller",
          "type": "address"
        },
        {
          "internalType": "uint256",
          "name": "amount",
          "type": "uint256"
        },
        {
          "internalType": "bool",
          "name": "shipped",
          "type": "bool"
        },
        {
          "internalType": "bool",
          "name": "delivered",
          "type": "bool"
        }
      ],
      "stateMutability": "view",
      "type": "function"
    },
    {
      "inputs": [
        {
          "internalType": "address",
          "name": "_seller",
          "type": "address"
        }
      ],
      "name": "createOrder",
      "outputs": [],
      "stateMutability": "payable",
      "type": "function"
    },
    {
      "inputs": [
        {
          "internalType": "uint256",
          "name": "_orderId",
          "type": "uint256"
        }
      ],
      "name": "markShipped",
      "outputs": [],
      "stateMutability": "nonpayable",
      "type": "function"
    },
    {
      "inputs": [
        {
          "internalType": "uint256",
          "name": "_orderId",
          "type": "uint256"
        }
      ],
      "name": "confirmDelivery",
      "outputs": [],
      "stateMutability": "nonpayable",
      "type": "function"
    },
    {
      "inputs": [
        {
          "internalType": "uint256",
          "name": "_orderId",
          "type": "uint256"
        }
      ],
      "name": "getOrder",
      "outputs": [
        {
          "internalType": "uint256",
          "name": "",
          "type": "uint256"
        },
        {
          "internalType": "address",
          "name": "",
          "type": "address"
        },
        {
          "internalType": "address",
          "name": "",
          "type": "address"
        },
        {
          "internalType": "uint256",
          "name": "",
          "type": "uint256"
        },
        {
          "internalType": "bool",
          "name": "",
          "type": "bool"
        },
        {
          "internalType": "bool",
          "name": "",
          "type": "bool"
        }
      ],
      "stateMutability": "view",
      "type": "function"
    }
  ],
  "bytecode": "0x60806040526000805534801561001457600080fd5b50610df7806100246000396000f3fe6080604052600436106100555760003560e01c80632453ffa81461005a578063a85c38ef14610085578063d09ef241146100c7578063ea3774e314610109578063eed90d6b14610125578063fd84cb971461014e575b600080fd5b34801561006657600080fd5b5061006f610177565b60405161007c91906108dd565b60405180910390f35b34801561009157600080fd5b506100ac60048036038101906100a79190610929565b61017d565b6040516100be969594939291906109b2565b60405180910390f35b3480156100d357600080fd5b506100ee60048036038101906100e99190610929565b610213565b604051610100969594939291906109b2565b60405180910390f35b610123600480360381019061011e9190610a3f565b610368565b005b34801561013157600080fd5b5061014c60048036038101906101479190610929565b61055e565b005b34801561015a57600080fd5b5061017560048036038101906101709190610929565b6106b1565b005b60005481565b60016020528060005260406000206000915090508060000154908060010160009054906101000a900473ffffffffffffffffffffffffffffffffffffffff16908060020160009054906101000a900473ffffffffffffffffffffffffffffffffffffffff16908060030154908060040160009054906101000a900460ff16908060040160019054906101000a900460ff16905086565b6000806000806000806000600160008981526020019081526020016000206040518060c0016040529081600082015481526020016001820160009054906101000a900473ffffffffffffffffffffffffffffffffffffffff1673ffffffffffffffffffffffffffffffffffffffff1673ffffffffffffffffffffffffffffffffffffffff1681526020016002820160009054906101000a900473ffffffffffffffffffffffffffffffffffffffff1673ffffffffffffffffffffffffffffffffffffffff1673ffffffffffffffffffffffffffffffffffffffff168152602001600382015481526020016004820160009054906101000a900460ff161515151581526020016004820160019054906101000a900460ff1615151515815250509050806000015181602001518260400151836060015184608001518560a001519650965096509650965096505091939550919395565b600034116103ab576040517f08c379a00000000000000000000000000000000000000000000000000000000081526004016103a290610ac9565b60405180910390fd5b6000808154809291906103bd90610b18565b91905055506040518060c0016040528060005481526020013373ffffffffffffffffffffffffffffffffffffffff1681526020018273ffffffffffffffffffffffffffffffffffffffff1681526020013481526020016000151581526020016000151581525060016000805481526020019081526020016000206000820151816000015560208201518160010160006101000a81548173ffffffffffffffffffffffffffffffffffffffff021916908373ffffffffffffffffffffffffffffffffffffffff16021790555060408201518160020160006101000a81548173ffffffffffffffffffffffffffffffffffffffff021916908373ffffffffffffffffffffffffffffffffffffffff1602179055506060820151816003015560808201518160040160006101000a81548160ff02191690831515021790555060a08201518160040160016101000a81548160ff0219169083151502179055509050507ff9e17940e547201709f9aaacdec8ab3566601c60d8f5affb54f74b79b0b50b136000543383346040516105539493929190610b60565b60405180910390a150565b60006001600083815260200190815260200160002090508060020160009054906101000a900473ffffffffffffffffffffffffffffffffffffffff1673ffffffffffffffffffffffffffffffffffffffff163373ffffffffffffffffffffffffffffffffffffffff1614610607576040517f08c379a00000000000000000000000000000000000000000000000000000000081526004016105fe90610bf1565b60405180910390fd5b8060040160009054906101000a900460ff1615610659576040517f08c379a000000000000000000000000000000000000000000000000000000000815260040161065090610c5d565b60405180910390fd5b60018160040160006101000a81548160ff0219169083151502179055507fe3ce5f36666aec295b2ed1a858caf4782066e5e8c1a5a5da7ba6551b14fcfdcb826040516106a591906108dd565b60405180910390a15050565b60006001600083815260200190815260200160002090508060010160009054906101000a900473ffffffffffffffffffffffffffffffffffffffff1673ffffffffffffffffffffffffffffffffffffffff163373ffffffffffffffffffffffffffffffffffffffff161461075a576040517f08c379a000000000000000000000000000000000000000000000000000000000815260040161075190610cc9565b60405180910390fd5b8060040160009054906101000a900460ff166107ab576040517f08c379a00000000000000000000000000000000000000000000000000000000081526004016107a290610d35565b60405180910390fd5b8060040160019054906101000a900460ff16156107fd576040517f08c379a00000000000000000000000000000000000000000000000000000000081526004016107f490610da1565b60405180910390fd5b60018160040160016101000a81548160ff0219169083151502179055508060020160009054906101000a900473ffffffffffffffffffffffffffffffffffffffff1673ffffffffffffffffffffffffffffffffffffffff166108fc82600301549081150290604051600060405180830381858888f19350505050158015610888573d6000803e3d6000fd5b507fe21fe02c1589242b30be2057f54fd54b7ddc463695d19ffdb54f9ebb0584f24a826040516108b891906108dd565b60405180910390a15050565b6000819050919050565b6108d7816108c4565b82525050565b60006020820190506108f260008301846108ce565b92915050565b600080fd5b610906816108c4565b811461091157600080fd5b50565b600081359050610923816108fd565b92915050565b60006020828403121561093f5761093e6108f8565b5b600061094d84828501610914565b91505092915050565b600073ffffffffffffffffffffffffffffffffffffffff82169050919050565b600061098182610956565b9050919050565b61099181610976565b82525050565b60008115159050919050565b6109ac81610997565b82525050565b600060c0820190506109c760008301896108ce565b6109d46020830188610988565b6109e16040830187610988565b6109ee60608301866108ce565b6109fb60808301856109a3565b610a0860a08301846109a3565b979650505050505050565b610a1c81610976565b8114610a2757600080fd5b50565b600081359050610a3981610a13565b92915050565b600060208284031215610a5557610a546108f8565b5b6000610a6384828501610a2a565b91505092915050565b600082825260208201905092915050565b7f5061796d656e7420726571756972656400000000000000000000000000000000600082015250565b6000610ab3601083610a6c565b9150610abe82610a7d565b602082019050919050565b60006020820190508181036000830152610ae281610aa6565b9050919050565b7f4e487b7100000000000000000000000000000000000000000000000000000000600052601160045260246000fd5b6000610b23826108c4565b91507fffffffffffffffffffffffffffffffffffffffffffffffffffffffffffffffff8203610b5557610b54610ae9565b5b600182019050919050565b6000608082019050610b7560008301876108ce565b610b826020830186610988565b610b8f6040830185610988565b610b9c60608301846108ce565b95945050505050565b7f4f6e6c792073656c6c65722063616e206d61726b207368697070656400000000600082015250565b6000610bdb601c83610a6c565b9150610be682610ba5565b602082019050919050565b60006020820190508181036000830152610c0a81610bce565b9050919050565b7f416c726561647920736869707065640000000000000000000000000000000000600082015250565b6000610c47600f83610a6c565b9150610c5282610c11565b602082019050919050565b60006020820190508181036000830152610c7681610c3a565b9050919050565b7f4f6e6c792062757965722063616e20636f6e6669726d2064656c697665727900600082015250565b6000610cb3601f83610a6c565b9150610cbe82610c7d565b602082019050919050565b60006020820190508181036000830152610ce281610ca6565b9050919050565b7f4f72646572206e6f742073686970706564000000000000000000000000000000600082015250565b6000610d1f601183610a6c565b9150610d2a82610ce9565b602082019050919050565b60006020820190508181036000830152610d4e81610d12565b9050919050565b7f416c72656164792064656c697665726564000000000000000000000000000000600082015250565b6000610d8b601183610a6c565b9150610d9682610d55565b602082019050919050565b60006020820190508181036000830152610dba81610d7e565b905091905056fea26469706673582212200413a10a6486dc4662a3c69966e94c5c2df31b51020f9dd0747edc7c845b92df64736f6c63430008130033",
  "immutableReferences": {},
  "source": "// SPDX-License-Identifier: MIT\r\npragma solidity ^0.8.0;\r\n\r\ncontract MarketplaceContract {\r\n\r\n    uint public orderCount = 0;\r\n\r\n    struct Order {\r\n        uint orderId;\r\n        address buyer;\r\n        address seller;\r\n        uint amount;        // Escrowed payment\r\n        bool shipped;       // Topic 2\r\n        bool delivered;     // Topic 2\r\n    }\r\n\r\n    mapping(uint => Order) public orders;\r\n\r\n    // ---------------- EVENTS ----------------\r\n    event OrderCreated(uint orderId, address buyer, address seller, uint amount);\r\n    event OrderShipped(uint orderId);\r\n    event OrderDelivered(uint orderId);\r\n\r\n    // ---------------- TOPIC 1: PAYMENT AUTOMATION ----------------\r\n    function createOrder(address _seller) public payable {\r\n        require(msg.value > 0, \"Payment required\");\r\n\r\n        orderCount++;\r\n\r\n        orders[orderCount] = Order(\r\n            orderCount,\r\n            msg.sender,\r\n            _seller,\r\n            msg.value,\r\n            false,\r\n            false\r\n        );\r\n\r\n        emit OrderCreated(orderCount, msg.sender, _seller, msg.value);\r\n    }\r\n\r\n    // ---------------- TOPIC 2: SHIPPING TRACKING ----------------\r\n    function markShipped(uint _orderId) public {\r\n        Order storage order = orders[_orderId];\r\n\r\n        require(msg.sender == order.seller, \"Only seller can mark shipped\");\r\n        require(!order.shipped, \"Already shipped\");\r\n\r\n        order.shipped = true;\r\n        emit OrderShipped(_orderId);\r\n    }\r\n\r\n    function confirmDelivery(uint _orderId) public {\r\n        Order storage order = orders[_orderId];\r\n\r\n        require(msg.sender == order.buyer, \"Only buyer can confirm delivery\");\r\n        require(order.shipped, \"Order not shipped\");\r\n        require(!order.delivered, \"Already delivered\");\r\n\r\n        order.delivered = true;\r\n\r\n        // Auto-release escrow payment\r\n        payable(order.seller).transfer(order.amount);\r\n\r\n        emit OrderDelivered(_orderId);\r\n    }\r\n\r\n    // ---------------- GETTER ----------------\r\n    function getOrder(uint _orderId) public view returns (\r\n        uint,\r\n        address,\r\n        address,\r\n        uint,\r\n        bool,\r\n        bool\r\n    ) {\r\n        Order memory o = orders[_orderId];\r\n        return (\r\n            o.orderId,\r\n            o.buyer,\r\n            o.seller,\r\n            o.amount,\r\n            o.shipped,\r\n            o.delivered\r\n        );\r\n    }\r\n}\r\n",
  "sourcePath": "C:\\Users\\24015157\\OneDrive - Republic Polytechnic\\RPY2S2\\C373\\C373-FA-Code\\contracts\\MarketplaceContract.sol",
  "compiler": {
    "name": "solc",
    "version": "0.8.19+commit.7dd6d404.Emscripten.clang"
  },
  "schemaVersion": "3.4.16",
  "updatedAt": "2026-01-22T06:43:47.638Z",
  "devdoc": {
    "kind": "dev",
    "methods": {},
    "version": 1
  },
  "userdoc": {
    "kind": "user",
    "methods": {},
    "version": 1
  }
}